{
	"contracts/fundMe.sol": {
		"fundeMe": {
			"abi": [
				{
					"inputs": [
						{
							"internalType": "address",
							"name": "funder",
							"type": "address"
						}
					],
					"name": "addressToAmount",
					"outputs": [
						{
							"internalType": "uint256",
							"name": "amountFunded",
							"type": "uint256"
						}
					],
					"stateMutability": "view",
					"type": "function"
				},
				{
					"inputs": [],
					"name": "fund",
					"outputs": [],
					"stateMutability": "payable",
					"type": "function"
				},
				{
					"inputs": [
						{
							"internalType": "uint256",
							"name": "",
							"type": "uint256"
						}
					],
					"name": "funders",
					"outputs": [
						{
							"internalType": "address",
							"name": "",
							"type": "address"
						}
					],
					"stateMutability": "view",
					"type": "function"
				},
				{
					"inputs": [],
					"name": "minimumUsd",
					"outputs": [
						{
							"internalType": "uint256",
							"name": "",
							"type": "uint256"
						}
					],
					"stateMutability": "view",
					"type": "function"
				},
				{
					"inputs": [],
					"name": "val",
					"outputs": [
						{
							"internalType": "uint256",
							"name": "",
							"type": "uint256"
						}
					],
					"stateMutability": "view",
					"type": "function"
				}
			],
			"devdoc": {
				"kind": "dev",
				"methods": {},
				"version": 1
			},
			"evm": {
				"assembly": "    /* \"contracts/fundMe.sol\":236:858  contract fundeMe {... */\n  mstore(0x40, 0x80)\n    /* \"contracts/fundMe.sol\":335:336  5 */\n  0x05\n    /* \"contracts/fundMe.sol\":307:336  uint256 public minimumUsd = 5 */\n  0x00\n  sstore\n    /* \"contracts/fundMe.sol\":236:858  contract fundeMe {... */\n  callvalue\n  dup1\n  iszero\n  tag_1\n  jumpi\n  0x00\n  dup1\n  revert\ntag_1:\n  pop\n  dataSize(sub_0)\n  dup1\n  dataOffset(sub_0)\n  0x00\n  codecopy\n  0x00\n  return\nstop\n\nsub_0: assembly {\n        /* \"contracts/fundMe.sol\":236:858  contract fundeMe {... */\n      mstore(0x40, 0x80)\n      jumpi(tag_1, lt(calldatasize, 0x04))\n      shr(0xe0, calldataload(0x00))\n      dup1\n      0x098de820\n      eq\n      tag_2\n      jumpi\n      dup1\n      0x3c6bb436\n      eq\n      tag_3\n      jumpi\n      dup1\n      0x3c7e7d28\n      eq\n      tag_4\n      jumpi\n      dup1\n      0xb60d4288\n      eq\n      tag_5\n      jumpi\n      dup1\n      0xdc0d3dff\n      eq\n      tag_6\n      jumpi\n    tag_1:\n      0x00\n      dup1\n      revert\n        /* \"contracts/fundMe.sol\":307:336  uint256 public minimumUsd = 5 */\n    tag_2:\n      callvalue\n      dup1\n      iszero\n      tag_7\n      jumpi\n      0x00\n      dup1\n      revert\n    tag_7:\n      pop\n      tag_8\n      tag_9\n      jump\t// in\n    tag_8:\n      mload(0x40)\n      tag_10\n      swap2\n      swap1\n      tag_11\n      jump\t// in\n    tag_10:\n      mload(0x40)\n      dup1\n      swap2\n      sub\n      swap1\n      return\n        /* \"contracts/fundMe.sol\":459:477  uint256 public val */\n    tag_3:\n      callvalue\n      dup1\n      iszero\n      tag_12\n      jumpi\n      0x00\n      dup1\n      revert\n    tag_12:\n      pop\n      tag_13\n      tag_14\n      jump\t// in\n    tag_13:\n      mload(0x40)\n      tag_15\n      swap2\n      swap1\n      tag_11\n      jump\t// in\n    tag_15:\n      mload(0x40)\n      dup1\n      swap2\n      sub\n      swap1\n      return\n        /* \"contracts/fundMe.sol\":381:452  mapping (address funder => uint256 amountFunded) public addressToAmount */\n    tag_4:\n      callvalue\n      dup1\n      iszero\n      tag_16\n      jumpi\n      0x00\n      dup1\n      revert\n    tag_16:\n      pop\n      tag_17\n      0x04\n      dup1\n      calldatasize\n      sub\n      dup2\n      add\n      swap1\n      tag_18\n      swap2\n      swap1\n      tag_19\n      jump\t// in\n    tag_18:\n      tag_20\n      jump\t// in\n    tag_17:\n      mload(0x40)\n      tag_21\n      swap2\n      swap1\n      tag_11\n      jump\t// in\n    tag_21:\n      mload(0x40)\n      dup1\n      swap2\n      sub\n      swap1\n      return\n        /* \"contracts/fundMe.sol\":486:809  function fund() public payable {... */\n    tag_5:\n      tag_22\n      tag_23\n      jump\t// in\n    tag_22:\n      stop\n        /* \"contracts/fundMe.sol\":350:374  address[] public funders */\n    tag_6:\n      callvalue\n      dup1\n      iszero\n      tag_24\n      jumpi\n      0x00\n      dup1\n      revert\n    tag_24:\n      pop\n      tag_25\n      0x04\n      dup1\n      calldatasize\n      sub\n      dup2\n      add\n      swap1\n      tag_26\n      swap2\n      swap1\n      tag_27\n      jump\t// in\n    tag_26:\n      tag_28\n      jump\t// in\n    tag_25:\n      mload(0x40)\n      tag_29\n      swap2\n      swap1\n      tag_30\n      jump\t// in\n    tag_29:\n      mload(0x40)\n      dup1\n      swap2\n      sub\n      swap1\n      return\n        /* \"contracts/fundMe.sol\":307:336  uint256 public minimumUsd = 5 */\n    tag_9:\n      sload(0x00)\n      dup2\n      jump\t// out\n        /* \"contracts/fundMe.sol\":459:477  uint256 public val */\n    tag_14:\n      sload(0x03)\n      dup2\n      jump\t// out\n        /* \"contracts/fundMe.sol\":381:452  mapping (address funder => uint256 amountFunded) public addressToAmount */\n    tag_20:\n      mstore(0x20, 0x02)\n      dup1\n      0x00\n      mstore\n      keccak256(0x00, 0x40)\n      0x00\n      swap2\n      pop\n      swap1\n      pop\n      sload\n      dup2\n      jump\t// out\n        /* \"contracts/fundMe.sol\":486:809  function fund() public payable {... */\n    tag_23:\n        /* \"contracts/fundMe.sol\":588:598  minimumUsd */\n      sload(0x00)\n        /* \"contracts/fundMe.sol\":555:584  msg.value.getConversionRate() */\n      tag_32\n        /* \"contracts/fundMe.sol\":555:564  msg.value */\n      callvalue\n        /* \"contracts/fundMe.sol\":555:582  msg.value.getConversionRate */\n      tag_33\n        /* \"contracts/fundMe.sol\":555:584  msg.value.getConversionRate() */\n      jump\t// in\n    tag_32:\n        /* \"contracts/fundMe.sol\":555:598  msg.value.getConversionRate() >= minimumUsd */\n      lt\n      iszero\n        /* \"contracts/fundMe.sol\":546:626  require( msg.value.getConversionRate() >= minimumUsd, \"didn't send enough ETH\" ) */\n      tag_34\n      jumpi\n      mload(0x40)\n      0x08c379a000000000000000000000000000000000000000000000000000000000\n      dup2\n      mstore\n      0x04\n      add\n      tag_35\n      swap1\n      tag_36\n      jump\t// in\n    tag_35:\n      mload(0x40)\n      dup1\n      swap2\n      sub\n      swap1\n      revert\n    tag_34:\n        /* \"contracts/fundMe.sol\":672:679  funders */\n      0x01\n        /* \"contracts/fundMe.sol\":685:695  msg.sender */\n      caller\n        /* \"contracts/fundMe.sol\":672:696  funders.push(msg.sender) */\n      swap1\n      dup1\n      0x01\n      dup2\n      sload\n      add\n      dup1\n      dup3\n      sstore\n      dup1\n      swap2\n      pop\n      pop\n      0x01\n      swap1\n      sub\n      swap1\n      0x00\n      mstore\n      keccak256(0x00, 0x20)\n      add\n      0x00\n      swap1\n      swap2\n      swap1\n      swap2\n      swap1\n      swap2\n      0x0100\n      exp\n      dup2\n      sload\n      dup2\n      0xffffffffffffffffffffffffffffffffffffffff\n      mul\n      not\n      and\n      swap1\n      dup4\n      0xffffffffffffffffffffffffffffffffffffffff\n      and\n      mul\n      or\n      swap1\n      sstore\n      pop\n        /* \"contracts/fundMe.sol\":797:801  1e16 */\n      0x2386f26fc10000\n        /* \"contracts/fundMe.sol\":767:796  msg.value.getConversionRate() */\n      tag_38\n        /* \"contracts/fundMe.sol\":767:776  msg.value */\n      callvalue\n        /* \"contracts/fundMe.sol\":767:794  msg.value.getConversionRate */\n      tag_33\n        /* \"contracts/fundMe.sol\":767:796  msg.value.getConversionRate() */\n      jump\t// in\n    tag_38:\n        /* \"contracts/fundMe.sol\":767:801  msg.value.getConversionRate()/1e16 */\n      tag_39\n      swap2\n      swap1\n      tag_40\n      jump\t// in\n    tag_39:\n        /* \"contracts/fundMe.sol\":737:752  addressToAmount */\n      0x02\n        /* \"contracts/fundMe.sol\":737:764  addressToAmount[msg.sender] */\n      0x00\n        /* \"contracts/fundMe.sol\":753:763  msg.sender */\n      caller\n        /* \"contracts/fundMe.sol\":737:764  addressToAmount[msg.sender] */\n      0xffffffffffffffffffffffffffffffffffffffff\n      and\n      0xffffffffffffffffffffffffffffffffffffffff\n      and\n      dup2\n      mstore\n      0x20\n      add\n      swap1\n      dup2\n      mstore\n      0x20\n      add\n      0x00\n      keccak256\n      sload\n        /* \"contracts/fundMe.sol\":737:801  addressToAmount[msg.sender] + msg.value.getConversionRate()/1e16 */\n      tag_41\n      swap2\n      swap1\n      tag_42\n      jump\t// in\n    tag_41:\n        /* \"contracts/fundMe.sol\":707:722  addressToAmount */\n      0x02\n        /* \"contracts/fundMe.sol\":707:734  addressToAmount[msg.sender] */\n      0x00\n        /* \"contracts/fundMe.sol\":723:733  msg.sender */\n      caller\n        /* \"contracts/fundMe.sol\":707:734  addressToAmount[msg.sender] */\n      0xffffffffffffffffffffffffffffffffffffffff\n      and\n      0xffffffffffffffffffffffffffffffffffffffff\n      and\n      dup2\n      mstore\n      0x20\n      add\n      swap1\n      dup2\n      mstore\n      0x20\n      add\n      0x00\n      keccak256\n        /* \"contracts/fundMe.sol\":707:801  addressToAmount[msg.sender] = addressToAmount[msg.sender] + msg.value.getConversionRate()/1e16 */\n      dup2\n      swap1\n      sstore\n      pop\n        /* \"contracts/fundMe.sol\":486:809  function fund() public payable {... */\n      jump\t// out\n        /* \"contracts/fundMe.sol\":350:374  address[] public funders */\n    tag_28:\n      0x01\n      dup2\n      dup2\n      sload\n      dup2\n      lt\n      tag_43\n      jumpi\n      0x00\n      dup1\n      revert\n    tag_43:\n      swap1\n      0x00\n      mstore\n      keccak256(0x00, 0x20)\n      add\n      0x00\n      swap2\n      pop\n      sload\n      swap1\n      0x0100\n      exp\n      swap1\n      div\n      0xffffffffffffffffffffffffffffffffffffffff\n      and\n      dup2\n      jump\t// out\n        /* \"contracts/priceConverter.sol\":583:812  function getConversionRate(uint256 ethAmount) internal view returns (uint256) {... */\n    tag_33:\n        /* \"contracts/priceConverter.sol\":652:659  uint256 */\n      0x00\n        /* \"contracts/priceConverter.sol\":682:698  uint256 ethPrice */\n      dup1\n        /* \"contracts/priceConverter.sol\":701:711  getPrice() */\n      tag_46\n        /* \"contracts/priceConverter.sol\":701:709  getPrice */\n      tag_47\n        /* \"contracts/priceConverter.sol\":701:711  getPrice() */\n      jump\t// in\n    tag_46:\n        /* \"contracts/priceConverter.sol\":682:711  uint256 ethPrice = getPrice() */\n      swap1\n      pop\n        /* \"contracts/priceConverter.sol\":722:743  uint256 ethPriceInUsd */\n      0x00\n        /* \"contracts/priceConverter.sol\":769:773  1e18 */\n      0x0de0b6b3a7640000\n        /* \"contracts/priceConverter.sol\":758:767  ethAmount */\n      dup5\n        /* \"contracts/priceConverter.sol\":747:755  ethPrice */\n      dup4\n        /* \"contracts/priceConverter.sol\":747:767  ethPrice * ethAmount */\n      tag_48\n      swap2\n      swap1\n      tag_49\n      jump\t// in\n    tag_48:\n        /* \"contracts/priceConverter.sol\":746:773  (ethPrice * ethAmount)/1e18 */\n      tag_50\n      swap2\n      swap1\n      tag_40\n      jump\t// in\n    tag_50:\n        /* \"contracts/priceConverter.sol\":722:773  uint256 ethPriceInUsd = (ethPrice * ethAmount)/1e18 */\n      swap1\n      pop\n        /* \"contracts/priceConverter.sol\":791:804  ethPriceInUsd */\n      dup1\n        /* \"contracts/priceConverter.sol\":784:804  return ethPriceInUsd */\n      swap3\n      pop\n      pop\n      pop\n        /* \"contracts/priceConverter.sol\":583:812  function getConversionRate(uint256 ethAmount) internal view returns (uint256) {... */\n      swap2\n      swap1\n      pop\n      jump\t// out\n        /* \"contracts/priceConverter.sol\":213:575  function getPrice() internal view returns (uint256) {... */\n    tag_47:\n        /* \"contracts/priceConverter.sol\":256:263  uint256 */\n      0x00\n        /* \"contracts/priceConverter.sol\":358:389  AggregatorV3Interface priceFeed */\n      dup1\n        /* \"contracts/priceConverter.sol\":414:456  0x694AA1769357215DE4FAC081bf1f309aDC325306 */\n      0x694aa1769357215de4fac081bf1f309adc325306\n        /* \"contracts/priceConverter.sol\":358:457  AggregatorV3Interface priceFeed = AggregatorV3Interface(0x694AA1769357215DE4FAC081bf1f309aDC325306) */\n      swap1\n      pop\n        /* \"contracts/priceConverter.sol\":470:483  int256 answer */\n      0x00\n        /* \"contracts/priceConverter.sol\":490:499  priceFeed */\n      dup2\n        /* \"contracts/priceConverter.sol\":490:515  priceFeed.latestRoundData */\n      0xffffffffffffffffffffffffffffffffffffffff\n      and\n      0xfeaf968c\n        /* \"contracts/priceConverter.sol\":490:517  priceFeed.latestRoundData() */\n      mload(0x40)\n      dup2\n      0xffffffff\n      and\n      0xe0\n      shl\n      dup2\n      mstore\n      0x04\n      add\n      0xa0\n      mload(0x40)\n      dup1\n      dup4\n      sub\n      dup2\n      dup7\n      gas\n      staticcall\n      iszero\n      dup1\n      iszero\n      tag_53\n      jumpi\n      returndatasize\n      0x00\n      dup1\n      returndatacopy\n      revert(0x00, returndatasize)\n    tag_53:\n      pop\n      pop\n      pop\n      pop\n      mload(0x40)\n      returndatasize\n      not(0x1f)\n      0x1f\n      dup3\n      add\n      and\n      dup3\n      add\n      dup1\n      0x40\n      mstore\n      pop\n      dup2\n      add\n      swap1\n      tag_54\n      swap2\n      swap1\n      tag_55\n      jump\t// in\n    tag_54:\n        /* \"contracts/priceConverter.sol\":468:517  (,int256 answer,,,) = priceFeed.latestRoundData() */\n      pop\n      pop\n      pop\n      swap2\n      pop\n      pop\n        /* \"contracts/priceConverter.sol\":552:556  1e10 */\n      0x02540be400\n        /* \"contracts/priceConverter.sol\":543:549  answer */\n      dup2\n        /* \"contracts/priceConverter.sol\":543:556  answer * 1e10 */\n      tag_56\n      swap2\n      swap1\n      tag_57\n      jump\t// in\n    tag_56:\n        /* \"contracts/priceConverter.sol\":528:557  return uint256(answer * 1e10) */\n      swap3\n      pop\n      pop\n      pop\n        /* \"contracts/priceConverter.sol\":213:575  function getPrice() internal view returns (uint256) {... */\n      swap1\n      jump\t// out\n        /* \"#utility.yul\":7:84   */\n    tag_58:\n        /* \"#utility.yul\":44:51   */\n      0x00\n        /* \"#utility.yul\":73:78   */\n      dup2\n        /* \"#utility.yul\":62:78   */\n      swap1\n      pop\n        /* \"#utility.yul\":7:84   */\n      swap2\n      swap1\n      pop\n      jump\t// out\n        /* \"#utility.yul\":90:208   */\n    tag_59:\n        /* \"#utility.yul\":177:201   */\n      tag_85\n        /* \"#utility.yul\":195:200   */\n      dup2\n        /* \"#utility.yul\":177:201   */\n      tag_58\n      jump\t// in\n    tag_85:\n        /* \"#utility.yul\":172:175   */\n      dup3\n        /* \"#utility.yul\":165:202   */\n      mstore\n        /* \"#utility.yul\":90:208   */\n      pop\n      pop\n      jump\t// out\n        /* \"#utility.yul\":214:436   */\n    tag_11:\n        /* \"#utility.yul\":307:311   */\n      0x00\n        /* \"#utility.yul\":345:347   */\n      0x20\n        /* \"#utility.yul\":334:343   */\n      dup3\n        /* \"#utility.yul\":330:348   */\n      add\n        /* \"#utility.yul\":322:348   */\n      swap1\n      pop\n        /* \"#utility.yul\":358:429   */\n      tag_87\n        /* \"#utility.yul\":426:427   */\n      0x00\n        /* \"#utility.yul\":415:424   */\n      dup4\n        /* \"#utility.yul\":411:428   */\n      add\n        /* \"#utility.yul\":402:408   */\n      dup5\n        /* \"#utility.yul\":358:429   */\n      tag_59\n      jump\t// in\n    tag_87:\n        /* \"#utility.yul\":214:436   */\n      swap3\n      swap2\n      pop\n      pop\n      jump\t// out\n        /* \"#utility.yul\":523:640   */\n    tag_61:\n        /* \"#utility.yul\":632:633   */\n      0x00\n        /* \"#utility.yul\":629:630   */\n      dup1\n        /* \"#utility.yul\":622:634   */\n      revert\n        /* \"#utility.yul\":769:895   */\n    tag_63:\n        /* \"#utility.yul\":806:813   */\n      0x00\n        /* \"#utility.yul\":846:888   */\n      0xffffffffffffffffffffffffffffffffffffffff\n        /* \"#utility.yul\":839:844   */\n      dup3\n        /* \"#utility.yul\":835:889   */\n      and\n        /* \"#utility.yul\":824:889   */\n      swap1\n      pop\n        /* \"#utility.yul\":769:895   */\n      swap2\n      swap1\n      pop\n      jump\t// out\n        /* \"#utility.yul\":901:997   */\n    tag_64:\n        /* \"#utility.yul\":938:945   */\n      0x00\n        /* \"#utility.yul\":967:991   */\n      tag_93\n        /* \"#utility.yul\":985:990   */\n      dup3\n        /* \"#utility.yul\":967:991   */\n      tag_63\n      jump\t// in\n    tag_93:\n        /* \"#utility.yul\":956:991   */\n      swap1\n      pop\n        /* \"#utility.yul\":901:997   */\n      swap2\n      swap1\n      pop\n      jump\t// out\n        /* \"#utility.yul\":1003:1125   */\n    tag_65:\n        /* \"#utility.yul\":1076:1100   */\n      tag_95\n        /* \"#utility.yul\":1094:1099   */\n      dup2\n        /* \"#utility.yul\":1076:1100   */\n      tag_64\n      jump\t// in\n    tag_95:\n        /* \"#utility.yul\":1069:1074   */\n      dup2\n        /* \"#utility.yul\":1066:1101   */\n      eq\n        /* \"#utility.yul\":1056:1119   */\n      tag_96\n      jumpi\n        /* \"#utility.yul\":1115:1116   */\n      0x00\n        /* \"#utility.yul\":1112:1113   */\n      dup1\n        /* \"#utility.yul\":1105:1117   */\n      revert\n        /* \"#utility.yul\":1056:1119   */\n    tag_96:\n        /* \"#utility.yul\":1003:1125   */\n      pop\n      jump\t// out\n        /* \"#utility.yul\":1131:1270   */\n    tag_66:\n        /* \"#utility.yul\":1177:1182   */\n      0x00\n        /* \"#utility.yul\":1215:1221   */\n      dup2\n        /* \"#utility.yul\":1202:1222   */\n      calldataload\n        /* \"#utility.yul\":1193:1222   */\n      swap1\n      pop\n        /* \"#utility.yul\":1231:1264   */\n      tag_98\n        /* \"#utility.yul\":1258:1263   */\n      dup2\n        /* \"#utility.yul\":1231:1264   */\n      tag_65\n      jump\t// in\n    tag_98:\n        /* \"#utility.yul\":1131:1270   */\n      swap3\n      swap2\n      pop\n      pop\n      jump\t// out\n        /* \"#utility.yul\":1276:1605   */\n    tag_19:\n        /* \"#utility.yul\":1335:1341   */\n      0x00\n        /* \"#utility.yul\":1384:1386   */\n      0x20\n        /* \"#utility.yul\":1372:1381   */\n      dup3\n        /* \"#utility.yul\":1363:1370   */\n      dup5\n        /* \"#utility.yul\":1359:1382   */\n      sub\n        /* \"#utility.yul\":1355:1387   */\n      slt\n        /* \"#utility.yul\":1352:1471   */\n      iszero\n      tag_100\n      jumpi\n        /* \"#utility.yul\":1390:1469   */\n      tag_101\n      tag_61\n      jump\t// in\n    tag_101:\n        /* \"#utility.yul\":1352:1471   */\n    tag_100:\n        /* \"#utility.yul\":1510:1511   */\n      0x00\n        /* \"#utility.yul\":1535:1588   */\n      tag_102\n        /* \"#utility.yul\":1580:1587   */\n      dup5\n        /* \"#utility.yul\":1571:1577   */\n      dup3\n        /* \"#utility.yul\":1560:1569   */\n      dup6\n        /* \"#utility.yul\":1556:1578   */\n      add\n        /* \"#utility.yul\":1535:1588   */\n      tag_66\n      jump\t// in\n    tag_102:\n        /* \"#utility.yul\":1525:1588   */\n      swap2\n      pop\n        /* \"#utility.yul\":1481:1598   */\n      pop\n        /* \"#utility.yul\":1276:1605   */\n      swap3\n      swap2\n      pop\n      pop\n      jump\t// out\n        /* \"#utility.yul\":1611:1733   */\n    tag_67:\n        /* \"#utility.yul\":1684:1708   */\n      tag_104\n        /* \"#utility.yul\":1702:1707   */\n      dup2\n        /* \"#utility.yul\":1684:1708   */\n      tag_58\n      jump\t// in\n    tag_104:\n        /* \"#utility.yul\":1677:1682   */\n      dup2\n        /* \"#utility.yul\":1674:1709   */\n      eq\n        /* \"#utility.yul\":1664:1727   */\n      tag_105\n      jumpi\n        /* \"#utility.yul\":1723:1724   */\n      0x00\n        /* \"#utility.yul\":1720:1721   */\n      dup1\n        /* \"#utility.yul\":1713:1725   */\n      revert\n        /* \"#utility.yul\":1664:1727   */\n    tag_105:\n        /* \"#utility.yul\":1611:1733   */\n      pop\n      jump\t// out\n        /* \"#utility.yul\":1739:1878   */\n    tag_68:\n        /* \"#utility.yul\":1785:1790   */\n      0x00\n        /* \"#utility.yul\":1823:1829   */\n      dup2\n        /* \"#utility.yul\":1810:1830   */\n      calldataload\n        /* \"#utility.yul\":1801:1830   */\n      swap1\n      pop\n        /* \"#utility.yul\":1839:1872   */\n      tag_107\n        /* \"#utility.yul\":1866:1871   */\n      dup2\n        /* \"#utility.yul\":1839:1872   */\n      tag_67\n      jump\t// in\n    tag_107:\n        /* \"#utility.yul\":1739:1878   */\n      swap3\n      swap2\n      pop\n      pop\n      jump\t// out\n        /* \"#utility.yul\":1884:2213   */\n    tag_27:\n        /* \"#utility.yul\":1943:1949   */\n      0x00\n        /* \"#utility.yul\":1992:1994   */\n      0x20\n        /* \"#utility.yul\":1980:1989   */\n      dup3\n        /* \"#utility.yul\":1971:1978   */\n      dup5\n        /* \"#utility.yul\":1967:1990   */\n      sub\n        /* \"#utility.yul\":1963:1995   */\n      slt\n        /* \"#utility.yul\":1960:2079   */\n      iszero\n      tag_109\n      jumpi\n        /* \"#utility.yul\":1998:2077   */\n      tag_110\n      tag_61\n      jump\t// in\n    tag_110:\n        /* \"#utility.yul\":1960:2079   */\n    tag_109:\n        /* \"#utility.yul\":2118:2119   */\n      0x00\n        /* \"#utility.yul\":2143:2196   */\n      tag_111\n        /* \"#utility.yul\":2188:2195   */\n      dup5\n        /* \"#utility.yul\":2179:2185   */\n      dup3\n        /* \"#utility.yul\":2168:2177   */\n      dup6\n        /* \"#utility.yul\":2164:2186   */\n      add\n        /* \"#utility.yul\":2143:2196   */\n      tag_68\n      jump\t// in\n    tag_111:\n        /* \"#utility.yul\":2133:2196   */\n      swap2\n      pop\n        /* \"#utility.yul\":2089:2206   */\n      pop\n        /* \"#utility.yul\":1884:2213   */\n      swap3\n      swap2\n      pop\n      pop\n      jump\t// out\n        /* \"#utility.yul\":2219:2337   */\n    tag_69:\n        /* \"#utility.yul\":2306:2330   */\n      tag_113\n        /* \"#utility.yul\":2324:2329   */\n      dup2\n        /* \"#utility.yul\":2306:2330   */\n      tag_64\n      jump\t// in\n    tag_113:\n        /* \"#utility.yul\":2301:2304   */\n      dup3\n        /* \"#utility.yul\":2294:2331   */\n      mstore\n        /* \"#utility.yul\":2219:2337   */\n      pop\n      pop\n      jump\t// out\n        /* \"#utility.yul\":2343:2565   */\n    tag_30:\n        /* \"#utility.yul\":2436:2440   */\n      0x00\n        /* \"#utility.yul\":2474:2476   */\n      0x20\n        /* \"#utility.yul\":2463:2472   */\n      dup3\n        /* \"#utility.yul\":2459:2477   */\n      add\n        /* \"#utility.yul\":2451:2477   */\n      swap1\n      pop\n        /* \"#utility.yul\":2487:2558   */\n      tag_115\n        /* \"#utility.yul\":2555:2556   */\n      0x00\n        /* \"#utility.yul\":2544:2553   */\n      dup4\n        /* \"#utility.yul\":2540:2557   */\n      add\n        /* \"#utility.yul\":2531:2537   */\n      dup5\n        /* \"#utility.yul\":2487:2558   */\n      tag_69\n      jump\t// in\n    tag_115:\n        /* \"#utility.yul\":2343:2565   */\n      swap3\n      swap2\n      pop\n      pop\n      jump\t// out\n        /* \"#utility.yul\":2571:2740   */\n    tag_70:\n        /* \"#utility.yul\":2655:2666   */\n      0x00\n        /* \"#utility.yul\":2689:2695   */\n      dup3\n        /* \"#utility.yul\":2684:2687   */\n      dup3\n        /* \"#utility.yul\":2677:2696   */\n      mstore\n        /* \"#utility.yul\":2729:2733   */\n      0x20\n        /* \"#utility.yul\":2724:2727   */\n      dup3\n        /* \"#utility.yul\":2720:2734   */\n      add\n        /* \"#utility.yul\":2705:2734   */\n      swap1\n      pop\n        /* \"#utility.yul\":2571:2740   */\n      swap3\n      swap2\n      pop\n      pop\n      jump\t// out\n        /* \"#utility.yul\":2746:2918   */\n    tag_71:\n        /* \"#utility.yul\":2886:2910   */\n      0x6469646e27742073656e6420656e6f7567682045544800000000000000000000\n        /* \"#utility.yul\":2882:2883   */\n      0x00\n        /* \"#utility.yul\":2874:2880   */\n      dup3\n        /* \"#utility.yul\":2870:2884   */\n      add\n        /* \"#utility.yul\":2863:2911   */\n      mstore\n        /* \"#utility.yul\":2746:2918   */\n      pop\n      jump\t// out\n        /* \"#utility.yul\":2924:3290   */\n    tag_72:\n        /* \"#utility.yul\":3066:3069   */\n      0x00\n        /* \"#utility.yul\":3087:3154   */\n      tag_119\n        /* \"#utility.yul\":3151:3153   */\n      0x16\n        /* \"#utility.yul\":3146:3149   */\n      dup4\n        /* \"#utility.yul\":3087:3154   */\n      tag_70\n      jump\t// in\n    tag_119:\n        /* \"#utility.yul\":3080:3154   */\n      swap2\n      pop\n        /* \"#utility.yul\":3163:3256   */\n      tag_120\n        /* \"#utility.yul\":3252:3255   */\n      dup3\n        /* \"#utility.yul\":3163:3256   */\n      tag_71\n      jump\t// in\n    tag_120:\n        /* \"#utility.yul\":3281:3283   */\n      0x20\n        /* \"#utility.yul\":3276:3279   */\n      dup3\n        /* \"#utility.yul\":3272:3284   */\n      add\n        /* \"#utility.yul\":3265:3284   */\n      swap1\n      pop\n        /* \"#utility.yul\":2924:3290   */\n      swap2\n      swap1\n      pop\n      jump\t// out\n        /* \"#utility.yul\":3296:3715   */\n    tag_36:\n        /* \"#utility.yul\":3462:3466   */\n      0x00\n        /* \"#utility.yul\":3500:3502   */\n      0x20\n        /* \"#utility.yul\":3489:3498   */\n      dup3\n        /* \"#utility.yul\":3485:3503   */\n      add\n        /* \"#utility.yul\":3477:3503   */\n      swap1\n      pop\n        /* \"#utility.yul\":3549:3558   */\n      dup2\n        /* \"#utility.yul\":3543:3547   */\n      dup2\n        /* \"#utility.yul\":3539:3559   */\n      sub\n        /* \"#utility.yul\":3535:3536   */\n      0x00\n        /* \"#utility.yul\":3524:3533   */\n      dup4\n        /* \"#utility.yul\":3520:3537   */\n      add\n        /* \"#utility.yul\":3513:3560   */\n      mstore\n        /* \"#utility.yul\":3577:3708   */\n      tag_122\n        /* \"#utility.yul\":3703:3707   */\n      dup2\n        /* \"#utility.yul\":3577:3708   */\n      tag_72\n      jump\t// in\n    tag_122:\n        /* \"#utility.yul\":3569:3708   */\n      swap1\n      pop\n        /* \"#utility.yul\":3296:3715   */\n      swap2\n      swap1\n      pop\n      jump\t// out\n        /* \"#utility.yul\":3721:3901   */\n    tag_73:\n        /* \"#utility.yul\":3769:3846   */\n      0x4e487b7100000000000000000000000000000000000000000000000000000000\n        /* \"#utility.yul\":3766:3767   */\n      0x00\n        /* \"#utility.yul\":3759:3847   */\n      mstore\n        /* \"#utility.yul\":3866:3870   */\n      0x12\n        /* \"#utility.yul\":3863:3864   */\n      0x04\n        /* \"#utility.yul\":3856:3871   */\n      mstore\n        /* \"#utility.yul\":3890:3894   */\n      0x24\n        /* \"#utility.yul\":3887:3888   */\n      0x00\n        /* \"#utility.yul\":3880:3895   */\n      revert\n        /* \"#utility.yul\":3907:4087   */\n    tag_74:\n        /* \"#utility.yul\":3955:4032   */\n      0x4e487b7100000000000000000000000000000000000000000000000000000000\n        /* \"#utility.yul\":3952:3953   */\n      0x00\n        /* \"#utility.yul\":3945:4033   */\n      mstore\n        /* \"#utility.yul\":4052:4056   */\n      0x11\n        /* \"#utility.yul\":4049:4050   */\n      0x04\n        /* \"#utility.yul\":4042:4057   */\n      mstore\n        /* \"#utility.yul\":4076:4080   */\n      0x24\n        /* \"#utility.yul\":4073:4074   */\n      0x00\n        /* \"#utility.yul\":4066:4081   */\n      revert\n        /* \"#utility.yul\":4093:4278   */\n    tag_40:\n        /* \"#utility.yul\":4133:4134   */\n      0x00\n        /* \"#utility.yul\":4150:4170   */\n      tag_126\n        /* \"#utility.yul\":4168:4169   */\n      dup3\n        /* \"#utility.yul\":4150:4170   */\n      tag_58\n      jump\t// in\n    tag_126:\n        /* \"#utility.yul\":4145:4170   */\n      swap2\n      pop\n        /* \"#utility.yul\":4184:4204   */\n      tag_127\n        /* \"#utility.yul\":4202:4203   */\n      dup4\n        /* \"#utility.yul\":4184:4204   */\n      tag_58\n      jump\t// in\n    tag_127:\n        /* \"#utility.yul\":4179:4204   */\n      swap3\n      pop\n        /* \"#utility.yul\":4223:4224   */\n      dup3\n        /* \"#utility.yul\":4213:4248   */\n      tag_128\n      jumpi\n        /* \"#utility.yul\":4228:4246   */\n      tag_129\n      tag_73\n      jump\t// in\n    tag_129:\n        /* \"#utility.yul\":4213:4248   */\n    tag_128:\n        /* \"#utility.yul\":4270:4271   */\n      dup3\n        /* \"#utility.yul\":4267:4268   */\n      dup3\n        /* \"#utility.yul\":4263:4272   */\n      div\n        /* \"#utility.yul\":4258:4272   */\n      swap1\n      pop\n        /* \"#utility.yul\":4093:4278   */\n      swap3\n      swap2\n      pop\n      pop\n      jump\t// out\n        /* \"#utility.yul\":4284:4475   */\n    tag_42:\n        /* \"#utility.yul\":4324:4327   */\n      0x00\n        /* \"#utility.yul\":4343:4363   */\n      tag_131\n        /* \"#utility.yul\":4361:4362   */\n      dup3\n        /* \"#utility.yul\":4343:4363   */\n      tag_58\n      jump\t// in\n    tag_131:\n        /* \"#utility.yul\":4338:4363   */\n      swap2\n      pop\n        /* \"#utility.yul\":4377:4397   */\n      tag_132\n        /* \"#utility.yul\":4395:4396   */\n      dup4\n        /* \"#utility.yul\":4377:4397   */\n      tag_58\n      jump\t// in\n    tag_132:\n        /* \"#utility.yul\":4372:4397   */\n      swap3\n      pop\n        /* \"#utility.yul\":4420:4421   */\n      dup3\n        /* \"#utility.yul\":4417:4418   */\n      dup3\n        /* \"#utility.yul\":4413:4422   */\n      add\n        /* \"#utility.yul\":4406:4422   */\n      swap1\n      pop\n        /* \"#utility.yul\":4441:4444   */\n      dup1\n        /* \"#utility.yul\":4438:4439   */\n      dup3\n        /* \"#utility.yul\":4435:4445   */\n      gt\n        /* \"#utility.yul\":4432:4468   */\n      iszero\n      tag_133\n      jumpi\n        /* \"#utility.yul\":4448:4466   */\n      tag_134\n      tag_74\n      jump\t// in\n    tag_134:\n        /* \"#utility.yul\":4432:4468   */\n    tag_133:\n        /* \"#utility.yul\":4284:4475   */\n      swap3\n      swap2\n      pop\n      pop\n      jump\t// out\n        /* \"#utility.yul\":4481:4891   */\n    tag_49:\n        /* \"#utility.yul\":4521:4528   */\n      0x00\n        /* \"#utility.yul\":4544:4564   */\n      tag_136\n        /* \"#utility.yul\":4562:4563   */\n      dup3\n        /* \"#utility.yul\":4544:4564   */\n      tag_58\n      jump\t// in\n    tag_136:\n        /* \"#utility.yul\":4539:4564   */\n      swap2\n      pop\n        /* \"#utility.yul\":4578:4598   */\n      tag_137\n        /* \"#utility.yul\":4596:4597   */\n      dup4\n        /* \"#utility.yul\":4578:4598   */\n      tag_58\n      jump\t// in\n    tag_137:\n        /* \"#utility.yul\":4573:4598   */\n      swap3\n      pop\n        /* \"#utility.yul\":4633:4634   */\n      dup3\n        /* \"#utility.yul\":4630:4631   */\n      dup3\n        /* \"#utility.yul\":4626:4635   */\n      mul\n        /* \"#utility.yul\":4655:4685   */\n      tag_138\n        /* \"#utility.yul\":4673:4684   */\n      dup2\n        /* \"#utility.yul\":4655:4685   */\n      tag_58\n      jump\t// in\n    tag_138:\n        /* \"#utility.yul\":4644:4685   */\n      swap2\n      pop\n        /* \"#utility.yul\":4834:4835   */\n      dup3\n        /* \"#utility.yul\":4825:4832   */\n      dup3\n        /* \"#utility.yul\":4821:4836   */\n      div\n        /* \"#utility.yul\":4818:4819   */\n      dup5\n        /* \"#utility.yul\":4815:4837   */\n      eq\n        /* \"#utility.yul\":4795:4796   */\n      dup4\n        /* \"#utility.yul\":4788:4797   */\n      iszero\n        /* \"#utility.yul\":4768:4851   */\n      or\n        /* \"#utility.yul\":4745:4884   */\n      tag_139\n      jumpi\n        /* \"#utility.yul\":4864:4882   */\n      tag_140\n      tag_74\n      jump\t// in\n    tag_140:\n        /* \"#utility.yul\":4745:4884   */\n    tag_139:\n        /* \"#utility.yul\":4529:4891   */\n      pop\n        /* \"#utility.yul\":4481:4891   */\n      swap3\n      swap2\n      pop\n      pop\n      jump\t// out\n        /* \"#utility.yul\":4897:5002   */\n    tag_75:\n        /* \"#utility.yul\":4933:4940   */\n      0x00\n        /* \"#utility.yul\":4973:4995   */\n      0xffffffffffffffffffff\n        /* \"#utility.yul\":4966:4971   */\n      dup3\n        /* \"#utility.yul\":4962:4996   */\n      and\n        /* \"#utility.yul\":4951:4996   */\n      swap1\n      pop\n        /* \"#utility.yul\":4897:5002   */\n      swap2\n      swap1\n      pop\n      jump\t// out\n        /* \"#utility.yul\":5008:5128   */\n    tag_76:\n        /* \"#utility.yul\":5080:5103   */\n      tag_143\n        /* \"#utility.yul\":5097:5102   */\n      dup2\n        /* \"#utility.yul\":5080:5103   */\n      tag_75\n      jump\t// in\n    tag_143:\n        /* \"#utility.yul\":5073:5078   */\n      dup2\n        /* \"#utility.yul\":5070:5104   */\n      eq\n        /* \"#utility.yul\":5060:5122   */\n      tag_144\n      jumpi\n        /* \"#utility.yul\":5118:5119   */\n      0x00\n        /* \"#utility.yul\":5115:5116   */\n      dup1\n        /* \"#utility.yul\":5108:5120   */\n      revert\n        /* \"#utility.yul\":5060:5122   */\n    tag_144:\n        /* \"#utility.yul\":5008:5128   */\n      pop\n      jump\t// out\n        /* \"#utility.yul\":5134:5275   */\n    tag_77:\n        /* \"#utility.yul\":5190:5195   */\n      0x00\n        /* \"#utility.yul\":5221:5227   */\n      dup2\n        /* \"#utility.yul\":5215:5228   */\n      mload\n        /* \"#utility.yul\":5206:5228   */\n      swap1\n      pop\n        /* \"#utility.yul\":5237:5269   */\n      tag_146\n        /* \"#utility.yul\":5263:5268   */\n      dup2\n        /* \"#utility.yul\":5237:5269   */\n      tag_76\n      jump\t// in\n    tag_146:\n        /* \"#utility.yul\":5134:5275   */\n      swap3\n      swap2\n      pop\n      pop\n      jump\t// out\n        /* \"#utility.yul\":5281:5357   */\n    tag_78:\n        /* \"#utility.yul\":5317:5324   */\n      0x00\n        /* \"#utility.yul\":5346:5351   */\n      dup2\n        /* \"#utility.yul\":5335:5351   */\n      swap1\n      pop\n        /* \"#utility.yul\":5281:5357   */\n      swap2\n      swap1\n      pop\n      jump\t// out\n        /* \"#utility.yul\":5363:5483   */\n    tag_79:\n        /* \"#utility.yul\":5435:5458   */\n      tag_149\n        /* \"#utility.yul\":5452:5457   */\n      dup2\n        /* \"#utility.yul\":5435:5458   */\n      tag_78\n      jump\t// in\n    tag_149:\n        /* \"#utility.yul\":5428:5433   */\n      dup2\n        /* \"#utility.yul\":5425:5459   */\n      eq\n        /* \"#utility.yul\":5415:5477   */\n      tag_150\n      jumpi\n        /* \"#utility.yul\":5473:5474   */\n      0x00\n        /* \"#utility.yul\":5470:5471   */\n      dup1\n        /* \"#utility.yul\":5463:5475   */\n      revert\n        /* \"#utility.yul\":5415:5477   */\n    tag_150:\n        /* \"#utility.yul\":5363:5483   */\n      pop\n      jump\t// out\n        /* \"#utility.yul\":5489:5630   */\n    tag_80:\n        /* \"#utility.yul\":5545:5550   */\n      0x00\n        /* \"#utility.yul\":5576:5582   */\n      dup2\n        /* \"#utility.yul\":5570:5583   */\n      mload\n        /* \"#utility.yul\":5561:5583   */\n      swap1\n      pop\n        /* \"#utility.yul\":5592:5624   */\n      tag_152\n        /* \"#utility.yul\":5618:5623   */\n      dup2\n        /* \"#utility.yul\":5592:5624   */\n      tag_79\n      jump\t// in\n    tag_152:\n        /* \"#utility.yul\":5489:5630   */\n      swap3\n      swap2\n      pop\n      pop\n      jump\t// out\n        /* \"#utility.yul\":5636:5779   */\n    tag_81:\n        /* \"#utility.yul\":5693:5698   */\n      0x00\n        /* \"#utility.yul\":5724:5730   */\n      dup2\n        /* \"#utility.yul\":5718:5731   */\n      mload\n        /* \"#utility.yul\":5709:5731   */\n      swap1\n      pop\n        /* \"#utility.yul\":5740:5773   */\n      tag_154\n        /* \"#utility.yul\":5767:5772   */\n      dup2\n        /* \"#utility.yul\":5740:5773   */\n      tag_67\n      jump\t// in\n    tag_154:\n        /* \"#utility.yul\":5636:5779   */\n      swap3\n      swap2\n      pop\n      pop\n      jump\t// out\n        /* \"#utility.yul\":5785:6756   */\n    tag_55:\n        /* \"#utility.yul\":5888:5894   */\n      0x00\n        /* \"#utility.yul\":5896:5902   */\n      dup1\n        /* \"#utility.yul\":5904:5910   */\n      0x00\n        /* \"#utility.yul\":5912:5918   */\n      dup1\n        /* \"#utility.yul\":5920:5926   */\n      0x00\n        /* \"#utility.yul\":5969:5972   */\n      0xa0\n        /* \"#utility.yul\":5957:5966   */\n      dup7\n        /* \"#utility.yul\":5948:5955   */\n      dup9\n        /* \"#utility.yul\":5944:5967   */\n      sub\n        /* \"#utility.yul\":5940:5973   */\n      slt\n        /* \"#utility.yul\":5937:6057   */\n      iszero\n      tag_156\n      jumpi\n        /* \"#utility.yul\":5976:6055   */\n      tag_157\n      tag_61\n      jump\t// in\n    tag_157:\n        /* \"#utility.yul\":5937:6057   */\n    tag_156:\n        /* \"#utility.yul\":6096:6097   */\n      0x00\n        /* \"#utility.yul\":6121:6184   */\n      tag_158\n        /* \"#utility.yul\":6176:6183   */\n      dup9\n        /* \"#utility.yul\":6167:6173   */\n      dup3\n        /* \"#utility.yul\":6156:6165   */\n      dup10\n        /* \"#utility.yul\":6152:6174   */\n      add\n        /* \"#utility.yul\":6121:6184   */\n      tag_77\n      jump\t// in\n    tag_158:\n        /* \"#utility.yul\":6111:6184   */\n      swap6\n      pop\n        /* \"#utility.yul\":6067:6194   */\n      pop\n        /* \"#utility.yul\":6233:6235   */\n      0x20\n        /* \"#utility.yul\":6259:6322   */\n      tag_159\n        /* \"#utility.yul\":6314:6321   */\n      dup9\n        /* \"#utility.yul\":6305:6311   */\n      dup3\n        /* \"#utility.yul\":6294:6303   */\n      dup10\n        /* \"#utility.yul\":6290:6312   */\n      add\n        /* \"#utility.yul\":6259:6322   */\n      tag_80\n      jump\t// in\n    tag_159:\n        /* \"#utility.yul\":6249:6322   */\n      swap5\n      pop\n        /* \"#utility.yul\":6204:6332   */\n      pop\n        /* \"#utility.yul\":6371:6373   */\n      0x40\n        /* \"#utility.yul\":6397:6461   */\n      tag_160\n        /* \"#utility.yul\":6453:6460   */\n      dup9\n        /* \"#utility.yul\":6444:6450   */\n      dup3\n        /* \"#utility.yul\":6433:6442   */\n      dup10\n        /* \"#utility.yul\":6429:6451   */\n      add\n        /* \"#utility.yul\":6397:6461   */\n      tag_81\n      jump\t// in\n    tag_160:\n        /* \"#utility.yul\":6387:6461   */\n      swap4\n      pop\n        /* \"#utility.yul\":6342:6471   */\n      pop\n        /* \"#utility.yul\":6510:6512   */\n      0x60\n        /* \"#utility.yul\":6536:6600   */\n      tag_161\n        /* \"#utility.yul\":6592:6599   */\n      dup9\n        /* \"#utility.yul\":6583:6589   */\n      dup3\n        /* \"#utility.yul\":6572:6581   */\n      dup10\n        /* \"#utility.yul\":6568:6590   */\n      add\n        /* \"#utility.yul\":6536:6600   */\n      tag_81\n      jump\t// in\n    tag_161:\n        /* \"#utility.yul\":6526:6600   */\n      swap3\n      pop\n        /* \"#utility.yul\":6481:6610   */\n      pop\n        /* \"#utility.yul\":6649:6652   */\n      0x80\n        /* \"#utility.yul\":6676:6739   */\n      tag_162\n        /* \"#utility.yul\":6731:6738   */\n      dup9\n        /* \"#utility.yul\":6722:6728   */\n      dup3\n        /* \"#utility.yul\":6711:6720   */\n      dup10\n        /* \"#utility.yul\":6707:6729   */\n      add\n        /* \"#utility.yul\":6676:6739   */\n      tag_77\n      jump\t// in\n    tag_162:\n        /* \"#utility.yul\":6666:6739   */\n      swap2\n      pop\n        /* \"#utility.yul\":6620:6749   */\n      pop\n        /* \"#utility.yul\":5785:6756   */\n      swap3\n      swap6\n      pop\n      swap3\n      swap6\n      swap1\n      swap4\n      pop\n      jump\t// out\n        /* \"#utility.yul\":6762:7318   */\n    tag_57:\n        /* \"#utility.yul\":6801:6808   */\n      0x00\n        /* \"#utility.yul\":6824:6843   */\n      tag_164\n        /* \"#utility.yul\":6841:6842   */\n      dup3\n        /* \"#utility.yul\":6824:6843   */\n      tag_78\n      jump\t// in\n    tag_164:\n        /* \"#utility.yul\":6819:6843   */\n      swap2\n      pop\n        /* \"#utility.yul\":6857:6876   */\n      tag_165\n        /* \"#utility.yul\":6874:6875   */\n      dup4\n        /* \"#utility.yul\":6857:6876   */\n      tag_78\n      jump\t// in\n    tag_165:\n        /* \"#utility.yul\":6852:6876   */\n      swap3\n      pop\n        /* \"#utility.yul\":6911:6912   */\n      dup3\n        /* \"#utility.yul\":6908:6909   */\n      dup3\n        /* \"#utility.yul\":6904:6913   */\n      mul\n        /* \"#utility.yul\":6933:6962   */\n      tag_166\n        /* \"#utility.yul\":6950:6961   */\n      dup2\n        /* \"#utility.yul\":6933:6962   */\n      tag_78\n      jump\t// in\n    tag_166:\n        /* \"#utility.yul\":6922:6962   */\n      swap2\n      pop\n        /* \"#utility.yul\":7020:7086   */\n      0x8000000000000000000000000000000000000000000000000000000000000000\n        /* \"#utility.yul\":7017:7018   */\n      dup5\n        /* \"#utility.yul\":7014:7087   */\n      eq\n        /* \"#utility.yul\":7010:7011   */\n      0x00\n        /* \"#utility.yul\":7007:7008   */\n      dup5\n        /* \"#utility.yul\":7003:7012   */\n      slt\n        /* \"#utility.yul\":6999:7088   */\n      and\n        /* \"#utility.yul\":6996:7111   */\n      iszero\n      tag_167\n      jumpi\n        /* \"#utility.yul\":7091:7109   */\n      tag_168\n      tag_74\n      jump\t// in\n    tag_168:\n        /* \"#utility.yul\":6996:7111   */\n    tag_167:\n        /* \"#utility.yul\":7261:7262   */\n      dup3\n        /* \"#utility.yul\":7252:7259   */\n      dup3\n        /* \"#utility.yul\":7247:7263   */\n      sdiv\n        /* \"#utility.yul\":7244:7245   */\n      dup5\n        /* \"#utility.yul\":7241:7264   */\n      eq\n        /* \"#utility.yul\":7221:7222   */\n      dup4\n        /* \"#utility.yul\":7214:7223   */\n      iszero\n        /* \"#utility.yul\":7194:7278   */\n      or\n        /* \"#utility.yul\":7171:7311   */\n      tag_169\n      jumpi\n        /* \"#utility.yul\":7291:7309   */\n      tag_170\n      tag_74\n      jump\t// in\n    tag_170:\n        /* \"#utility.yul\":7171:7311   */\n    tag_169:\n        /* \"#utility.yul\":6809:7318   */\n      pop\n        /* \"#utility.yul\":6762:7318   */\n      swap3\n      swap2\n      pop\n      pop\n      jump\t// out\n\n    auxdata: 0xa26469706673582212204aa56f9bc77613eb87934298dc949a83a3cc304113da3e3efb81f2b1bc58eb0464736f6c63430008180033\n}\n",
				"bytecode": {
					"linkReferences": {},
					"object": "608060405260055f55348015610013575f80fd5b50610803806100215f395ff3fe608060405260043610610049575f3560e01c8063098de8201461004d5780633c6bb436146100775780633c7e7d28146100a1578063b60d4288146100dd578063dc0d3dff146100e7575b5f80fd5b348015610058575f80fd5b50610061610123565b60405161006e91906103c5565b60405180910390f35b348015610082575f80fd5b5061008b610128565b60405161009891906103c5565b60405180910390f35b3480156100ac575f80fd5b506100c760048036038101906100c2919061043c565b61012e565b6040516100d491906103c5565b60405180910390f35b6100e5610143565b005b3480156100f2575f80fd5b5061010d60048036038101906101089190610491565b610295565b60405161011a91906104cb565b60405180910390f35b5f5481565b60035481565b6002602052805f5260405f205f915090505481565b5f5461014e346102d0565b101561018f576040517f08c379a00000000000000000000000000000000000000000000000000000000081526004016101869061053e565b60405180910390fd5b600133908060018154018082558091505060019003905f5260205f20015f9091909190916101000a81548173ffffffffffffffffffffffffffffffffffffffff021916908373ffffffffffffffffffffffffffffffffffffffff160217905550662386f26fc10000610200346102d0565b61020a91906105b6565b60025f3373ffffffffffffffffffffffffffffffffffffffff1673ffffffffffffffffffffffffffffffffffffffff1681526020019081526020015f205461025291906105e6565b60025f3373ffffffffffffffffffffffffffffffffffffffff1673ffffffffffffffffffffffffffffffffffffffff1681526020019081526020015f2081905550565b600181815481106102a4575f80fd5b905f5260205f20015f915054906101000a900473ffffffffffffffffffffffffffffffffffffffff1681565b5f806102da610308565b90505f670de0b6b3a764000084836102f29190610619565b6102fc91906105b6565b90508092505050919050565b5f8073694aa1769357215de4fac081bf1f309adc32530690505f8173ffffffffffffffffffffffffffffffffffffffff1663feaf968c6040518163ffffffff1660e01b815260040160a060405180830381865afa15801561036b573d5f803e3d5ffd5b505050506040513d601f19601f8201168201806040525081019061038f91906106e0565b5050509150506402540be400816103a69190610757565b9250505090565b5f819050919050565b6103bf816103ad565b82525050565b5f6020820190506103d85f8301846103b6565b92915050565b5f80fd5b5f73ffffffffffffffffffffffffffffffffffffffff82169050919050565b5f61040b826103e2565b9050919050565b61041b81610401565b8114610425575f80fd5b50565b5f8135905061043681610412565b92915050565b5f60208284031215610451576104506103de565b5b5f61045e84828501610428565b91505092915050565b610470816103ad565b811461047a575f80fd5b50565b5f8135905061048b81610467565b92915050565b5f602082840312156104a6576104a56103de565b5b5f6104b38482850161047d565b91505092915050565b6104c581610401565b82525050565b5f6020820190506104de5f8301846104bc565b92915050565b5f82825260208201905092915050565b7f6469646e27742073656e6420656e6f75676820455448000000000000000000005f82015250565b5f6105286016836104e4565b9150610533826104f4565b602082019050919050565b5f6020820190508181035f8301526105558161051c565b9050919050565b7f4e487b71000000000000000000000000000000000000000000000000000000005f52601260045260245ffd5b7f4e487b71000000000000000000000000000000000000000000000000000000005f52601160045260245ffd5b5f6105c0826103ad565b91506105cb836103ad565b9250826105db576105da61055c565b5b828204905092915050565b5f6105f0826103ad565b91506105fb836103ad565b925082820190508082111561061357610612610589565b5b92915050565b5f610623826103ad565b915061062e836103ad565b925082820261063c816103ad565b9150828204841483151761065357610652610589565b5b5092915050565b5f69ffffffffffffffffffff82169050919050565b6106788161065a565b8114610682575f80fd5b50565b5f815190506106938161066f565b92915050565b5f819050919050565b6106ab81610699565b81146106b5575f80fd5b50565b5f815190506106c6816106a2565b92915050565b5f815190506106da81610467565b92915050565b5f805f805f60a086880312156106f9576106f86103de565b5b5f61070688828901610685565b9550506020610717888289016106b8565b9450506040610728888289016106cc565b9350506060610739888289016106cc565b925050608061074a88828901610685565b9150509295509295909350565b5f61076182610699565b915061076c83610699565b925082820261077a81610699565b91507f800000000000000000000000000000000000000000000000000000000000000084145f841216156107b1576107b0610589565b5b82820584148315176107c6576107c5610589565b5b509291505056fea26469706673582212204aa56f9bc77613eb87934298dc949a83a3cc304113da3e3efb81f2b1bc58eb0464736f6c63430008180033",
					"opcodes": "PUSH1 0x80 PUSH1 0x40 MSTORE PUSH1 0x5 PUSH0 SSTORE CALLVALUE DUP1 ISZERO PUSH2 0x13 JUMPI PUSH0 DUP1 REVERT JUMPDEST POP PUSH2 0x803 DUP1 PUSH2 0x21 PUSH0 CODECOPY PUSH0 RETURN INVALID PUSH1 0x80 PUSH1 0x40 MSTORE PUSH1 0x4 CALLDATASIZE LT PUSH2 0x49 JUMPI PUSH0 CALLDATALOAD PUSH1 0xE0 SHR DUP1 PUSH4 0x98DE820 EQ PUSH2 0x4D JUMPI DUP1 PUSH4 0x3C6BB436 EQ PUSH2 0x77 JUMPI DUP1 PUSH4 0x3C7E7D28 EQ PUSH2 0xA1 JUMPI DUP1 PUSH4 0xB60D4288 EQ PUSH2 0xDD JUMPI DUP1 PUSH4 0xDC0D3DFF EQ PUSH2 0xE7 JUMPI JUMPDEST PUSH0 DUP1 REVERT JUMPDEST CALLVALUE DUP1 ISZERO PUSH2 0x58 JUMPI PUSH0 DUP1 REVERT JUMPDEST POP PUSH2 0x61 PUSH2 0x123 JUMP JUMPDEST PUSH1 0x40 MLOAD PUSH2 0x6E SWAP2 SWAP1 PUSH2 0x3C5 JUMP JUMPDEST PUSH1 0x40 MLOAD DUP1 SWAP2 SUB SWAP1 RETURN JUMPDEST CALLVALUE DUP1 ISZERO PUSH2 0x82 JUMPI PUSH0 DUP1 REVERT JUMPDEST POP PUSH2 0x8B PUSH2 0x128 JUMP JUMPDEST PUSH1 0x40 MLOAD PUSH2 0x98 SWAP2 SWAP1 PUSH2 0x3C5 JUMP JUMPDEST PUSH1 0x40 MLOAD DUP1 SWAP2 SUB SWAP1 RETURN JUMPDEST CALLVALUE DUP1 ISZERO PUSH2 0xAC JUMPI PUSH0 DUP1 REVERT JUMPDEST POP PUSH2 0xC7 PUSH1 0x4 DUP1 CALLDATASIZE SUB DUP2 ADD SWAP1 PUSH2 0xC2 SWAP2 SWAP1 PUSH2 0x43C JUMP JUMPDEST PUSH2 0x12E JUMP JUMPDEST PUSH1 0x40 MLOAD PUSH2 0xD4 SWAP2 SWAP1 PUSH2 0x3C5 JUMP JUMPDEST PUSH1 0x40 MLOAD DUP1 SWAP2 SUB SWAP1 RETURN JUMPDEST PUSH2 0xE5 PUSH2 0x143 JUMP JUMPDEST STOP JUMPDEST CALLVALUE DUP1 ISZERO PUSH2 0xF2 JUMPI PUSH0 DUP1 REVERT JUMPDEST POP PUSH2 0x10D PUSH1 0x4 DUP1 CALLDATASIZE SUB DUP2 ADD SWAP1 PUSH2 0x108 SWAP2 SWAP1 PUSH2 0x491 JUMP JUMPDEST PUSH2 0x295 JUMP JUMPDEST PUSH1 0x40 MLOAD PUSH2 0x11A SWAP2 SWAP1 PUSH2 0x4CB JUMP JUMPDEST PUSH1 0x40 MLOAD DUP1 SWAP2 SUB SWAP1 RETURN JUMPDEST PUSH0 SLOAD DUP2 JUMP JUMPDEST PUSH1 0x3 SLOAD DUP2 JUMP JUMPDEST PUSH1 0x2 PUSH1 0x20 MSTORE DUP1 PUSH0 MSTORE PUSH1 0x40 PUSH0 KECCAK256 PUSH0 SWAP2 POP SWAP1 POP SLOAD DUP2 JUMP JUMPDEST PUSH0 SLOAD PUSH2 0x14E CALLVALUE PUSH2 0x2D0 JUMP JUMPDEST LT ISZERO PUSH2 0x18F JUMPI PUSH1 0x40 MLOAD PUSH32 0x8C379A000000000000000000000000000000000000000000000000000000000 DUP2 MSTORE PUSH1 0x4 ADD PUSH2 0x186 SWAP1 PUSH2 0x53E JUMP JUMPDEST PUSH1 0x40 MLOAD DUP1 SWAP2 SUB SWAP1 REVERT JUMPDEST PUSH1 0x1 CALLER SWAP1 DUP1 PUSH1 0x1 DUP2 SLOAD ADD DUP1 DUP3 SSTORE DUP1 SWAP2 POP POP PUSH1 0x1 SWAP1 SUB SWAP1 PUSH0 MSTORE PUSH1 0x20 PUSH0 KECCAK256 ADD PUSH0 SWAP1 SWAP2 SWAP1 SWAP2 SWAP1 SWAP2 PUSH2 0x100 EXP DUP2 SLOAD DUP2 PUSH20 0xFFFFFFFFFFFFFFFFFFFFFFFFFFFFFFFFFFFFFFFF MUL NOT AND SWAP1 DUP4 PUSH20 0xFFFFFFFFFFFFFFFFFFFFFFFFFFFFFFFFFFFFFFFF AND MUL OR SWAP1 SSTORE POP PUSH7 0x2386F26FC10000 PUSH2 0x200 CALLVALUE PUSH2 0x2D0 JUMP JUMPDEST PUSH2 0x20A SWAP2 SWAP1 PUSH2 0x5B6 JUMP JUMPDEST PUSH1 0x2 PUSH0 CALLER PUSH20 0xFFFFFFFFFFFFFFFFFFFFFFFFFFFFFFFFFFFFFFFF AND PUSH20 0xFFFFFFFFFFFFFFFFFFFFFFFFFFFFFFFFFFFFFFFF AND DUP2 MSTORE PUSH1 0x20 ADD SWAP1 DUP2 MSTORE PUSH1 0x20 ADD PUSH0 KECCAK256 SLOAD PUSH2 0x252 SWAP2 SWAP1 PUSH2 0x5E6 JUMP JUMPDEST PUSH1 0x2 PUSH0 CALLER PUSH20 0xFFFFFFFFFFFFFFFFFFFFFFFFFFFFFFFFFFFFFFFF AND PUSH20 0xFFFFFFFFFFFFFFFFFFFFFFFFFFFFFFFFFFFFFFFF AND DUP2 MSTORE PUSH1 0x20 ADD SWAP1 DUP2 MSTORE PUSH1 0x20 ADD PUSH0 KECCAK256 DUP2 SWAP1 SSTORE POP JUMP JUMPDEST PUSH1 0x1 DUP2 DUP2 SLOAD DUP2 LT PUSH2 0x2A4 JUMPI PUSH0 DUP1 REVERT JUMPDEST SWAP1 PUSH0 MSTORE PUSH1 0x20 PUSH0 KECCAK256 ADD PUSH0 SWAP2 POP SLOAD SWAP1 PUSH2 0x100 EXP SWAP1 DIV PUSH20 0xFFFFFFFFFFFFFFFFFFFFFFFFFFFFFFFFFFFFFFFF AND DUP2 JUMP JUMPDEST PUSH0 DUP1 PUSH2 0x2DA PUSH2 0x308 JUMP JUMPDEST SWAP1 POP PUSH0 PUSH8 0xDE0B6B3A7640000 DUP5 DUP4 PUSH2 0x2F2 SWAP2 SWAP1 PUSH2 0x619 JUMP JUMPDEST PUSH2 0x2FC SWAP2 SWAP1 PUSH2 0x5B6 JUMP JUMPDEST SWAP1 POP DUP1 SWAP3 POP POP POP SWAP2 SWAP1 POP JUMP JUMPDEST PUSH0 DUP1 PUSH20 0x694AA1769357215DE4FAC081BF1F309ADC325306 SWAP1 POP PUSH0 DUP2 PUSH20 0xFFFFFFFFFFFFFFFFFFFFFFFFFFFFFFFFFFFFFFFF AND PUSH4 0xFEAF968C PUSH1 0x40 MLOAD DUP2 PUSH4 0xFFFFFFFF AND PUSH1 0xE0 SHL DUP2 MSTORE PUSH1 0x4 ADD PUSH1 0xA0 PUSH1 0x40 MLOAD DUP1 DUP4 SUB DUP2 DUP7 GAS STATICCALL ISZERO DUP1 ISZERO PUSH2 0x36B JUMPI RETURNDATASIZE PUSH0 DUP1 RETURNDATACOPY RETURNDATASIZE PUSH0 REVERT JUMPDEST POP POP POP POP PUSH1 0x40 MLOAD RETURNDATASIZE PUSH1 0x1F NOT PUSH1 0x1F DUP3 ADD AND DUP3 ADD DUP1 PUSH1 0x40 MSTORE POP DUP2 ADD SWAP1 PUSH2 0x38F SWAP2 SWAP1 PUSH2 0x6E0 JUMP JUMPDEST POP POP POP SWAP2 POP POP PUSH5 0x2540BE400 DUP2 PUSH2 0x3A6 SWAP2 SWAP1 PUSH2 0x757 JUMP JUMPDEST SWAP3 POP POP POP SWAP1 JUMP JUMPDEST PUSH0 DUP2 SWAP1 POP SWAP2 SWAP1 POP JUMP JUMPDEST PUSH2 0x3BF DUP2 PUSH2 0x3AD JUMP JUMPDEST DUP3 MSTORE POP POP JUMP JUMPDEST PUSH0 PUSH1 0x20 DUP3 ADD SWAP1 POP PUSH2 0x3D8 PUSH0 DUP4 ADD DUP5 PUSH2 0x3B6 JUMP JUMPDEST SWAP3 SWAP2 POP POP JUMP JUMPDEST PUSH0 DUP1 REVERT JUMPDEST PUSH0 PUSH20 0xFFFFFFFFFFFFFFFFFFFFFFFFFFFFFFFFFFFFFFFF DUP3 AND SWAP1 POP SWAP2 SWAP1 POP JUMP JUMPDEST PUSH0 PUSH2 0x40B DUP3 PUSH2 0x3E2 JUMP JUMPDEST SWAP1 POP SWAP2 SWAP1 POP JUMP JUMPDEST PUSH2 0x41B DUP2 PUSH2 0x401 JUMP JUMPDEST DUP2 EQ PUSH2 0x425 JUMPI PUSH0 DUP1 REVERT JUMPDEST POP JUMP JUMPDEST PUSH0 DUP2 CALLDATALOAD SWAP1 POP PUSH2 0x436 DUP2 PUSH2 0x412 JUMP JUMPDEST SWAP3 SWAP2 POP POP JUMP JUMPDEST PUSH0 PUSH1 0x20 DUP3 DUP5 SUB SLT ISZERO PUSH2 0x451 JUMPI PUSH2 0x450 PUSH2 0x3DE JUMP JUMPDEST JUMPDEST PUSH0 PUSH2 0x45E DUP5 DUP3 DUP6 ADD PUSH2 0x428 JUMP JUMPDEST SWAP2 POP POP SWAP3 SWAP2 POP POP JUMP JUMPDEST PUSH2 0x470 DUP2 PUSH2 0x3AD JUMP JUMPDEST DUP2 EQ PUSH2 0x47A JUMPI PUSH0 DUP1 REVERT JUMPDEST POP JUMP JUMPDEST PUSH0 DUP2 CALLDATALOAD SWAP1 POP PUSH2 0x48B DUP2 PUSH2 0x467 JUMP JUMPDEST SWAP3 SWAP2 POP POP JUMP JUMPDEST PUSH0 PUSH1 0x20 DUP3 DUP5 SUB SLT ISZERO PUSH2 0x4A6 JUMPI PUSH2 0x4A5 PUSH2 0x3DE JUMP JUMPDEST JUMPDEST PUSH0 PUSH2 0x4B3 DUP5 DUP3 DUP6 ADD PUSH2 0x47D JUMP JUMPDEST SWAP2 POP POP SWAP3 SWAP2 POP POP JUMP JUMPDEST PUSH2 0x4C5 DUP2 PUSH2 0x401 JUMP JUMPDEST DUP3 MSTORE POP POP JUMP JUMPDEST PUSH0 PUSH1 0x20 DUP3 ADD SWAP1 POP PUSH2 0x4DE PUSH0 DUP4 ADD DUP5 PUSH2 0x4BC JUMP JUMPDEST SWAP3 SWAP2 POP POP JUMP JUMPDEST PUSH0 DUP3 DUP3 MSTORE PUSH1 0x20 DUP3 ADD SWAP1 POP SWAP3 SWAP2 POP POP JUMP JUMPDEST PUSH32 0x6469646E27742073656E6420656E6F7567682045544800000000000000000000 PUSH0 DUP3 ADD MSTORE POP JUMP JUMPDEST PUSH0 PUSH2 0x528 PUSH1 0x16 DUP4 PUSH2 0x4E4 JUMP JUMPDEST SWAP2 POP PUSH2 0x533 DUP3 PUSH2 0x4F4 JUMP JUMPDEST PUSH1 0x20 DUP3 ADD SWAP1 POP SWAP2 SWAP1 POP JUMP JUMPDEST PUSH0 PUSH1 0x20 DUP3 ADD SWAP1 POP DUP2 DUP2 SUB PUSH0 DUP4 ADD MSTORE PUSH2 0x555 DUP2 PUSH2 0x51C JUMP JUMPDEST SWAP1 POP SWAP2 SWAP1 POP JUMP JUMPDEST PUSH32 0x4E487B7100000000000000000000000000000000000000000000000000000000 PUSH0 MSTORE PUSH1 0x12 PUSH1 0x4 MSTORE PUSH1 0x24 PUSH0 REVERT JUMPDEST PUSH32 0x4E487B7100000000000000000000000000000000000000000000000000000000 PUSH0 MSTORE PUSH1 0x11 PUSH1 0x4 MSTORE PUSH1 0x24 PUSH0 REVERT JUMPDEST PUSH0 PUSH2 0x5C0 DUP3 PUSH2 0x3AD JUMP JUMPDEST SWAP2 POP PUSH2 0x5CB DUP4 PUSH2 0x3AD JUMP JUMPDEST SWAP3 POP DUP3 PUSH2 0x5DB JUMPI PUSH2 0x5DA PUSH2 0x55C JUMP JUMPDEST JUMPDEST DUP3 DUP3 DIV SWAP1 POP SWAP3 SWAP2 POP POP JUMP JUMPDEST PUSH0 PUSH2 0x5F0 DUP3 PUSH2 0x3AD JUMP JUMPDEST SWAP2 POP PUSH2 0x5FB DUP4 PUSH2 0x3AD JUMP JUMPDEST SWAP3 POP DUP3 DUP3 ADD SWAP1 POP DUP1 DUP3 GT ISZERO PUSH2 0x613 JUMPI PUSH2 0x612 PUSH2 0x589 JUMP JUMPDEST JUMPDEST SWAP3 SWAP2 POP POP JUMP JUMPDEST PUSH0 PUSH2 0x623 DUP3 PUSH2 0x3AD JUMP JUMPDEST SWAP2 POP PUSH2 0x62E DUP4 PUSH2 0x3AD JUMP JUMPDEST SWAP3 POP DUP3 DUP3 MUL PUSH2 0x63C DUP2 PUSH2 0x3AD JUMP JUMPDEST SWAP2 POP DUP3 DUP3 DIV DUP5 EQ DUP4 ISZERO OR PUSH2 0x653 JUMPI PUSH2 0x652 PUSH2 0x589 JUMP JUMPDEST JUMPDEST POP SWAP3 SWAP2 POP POP JUMP JUMPDEST PUSH0 PUSH10 0xFFFFFFFFFFFFFFFFFFFF DUP3 AND SWAP1 POP SWAP2 SWAP1 POP JUMP JUMPDEST PUSH2 0x678 DUP2 PUSH2 0x65A JUMP JUMPDEST DUP2 EQ PUSH2 0x682 JUMPI PUSH0 DUP1 REVERT JUMPDEST POP JUMP JUMPDEST PUSH0 DUP2 MLOAD SWAP1 POP PUSH2 0x693 DUP2 PUSH2 0x66F JUMP JUMPDEST SWAP3 SWAP2 POP POP JUMP JUMPDEST PUSH0 DUP2 SWAP1 POP SWAP2 SWAP1 POP JUMP JUMPDEST PUSH2 0x6AB DUP2 PUSH2 0x699 JUMP JUMPDEST DUP2 EQ PUSH2 0x6B5 JUMPI PUSH0 DUP1 REVERT JUMPDEST POP JUMP JUMPDEST PUSH0 DUP2 MLOAD SWAP1 POP PUSH2 0x6C6 DUP2 PUSH2 0x6A2 JUMP JUMPDEST SWAP3 SWAP2 POP POP JUMP JUMPDEST PUSH0 DUP2 MLOAD SWAP1 POP PUSH2 0x6DA DUP2 PUSH2 0x467 JUMP JUMPDEST SWAP3 SWAP2 POP POP JUMP JUMPDEST PUSH0 DUP1 PUSH0 DUP1 PUSH0 PUSH1 0xA0 DUP7 DUP9 SUB SLT ISZERO PUSH2 0x6F9 JUMPI PUSH2 0x6F8 PUSH2 0x3DE JUMP JUMPDEST JUMPDEST PUSH0 PUSH2 0x706 DUP9 DUP3 DUP10 ADD PUSH2 0x685 JUMP JUMPDEST SWAP6 POP POP PUSH1 0x20 PUSH2 0x717 DUP9 DUP3 DUP10 ADD PUSH2 0x6B8 JUMP JUMPDEST SWAP5 POP POP PUSH1 0x40 PUSH2 0x728 DUP9 DUP3 DUP10 ADD PUSH2 0x6CC JUMP JUMPDEST SWAP4 POP POP PUSH1 0x60 PUSH2 0x739 DUP9 DUP3 DUP10 ADD PUSH2 0x6CC JUMP JUMPDEST SWAP3 POP POP PUSH1 0x80 PUSH2 0x74A DUP9 DUP3 DUP10 ADD PUSH2 0x685 JUMP JUMPDEST SWAP2 POP POP SWAP3 SWAP6 POP SWAP3 SWAP6 SWAP1 SWAP4 POP JUMP JUMPDEST PUSH0 PUSH2 0x761 DUP3 PUSH2 0x699 JUMP JUMPDEST SWAP2 POP PUSH2 0x76C DUP4 PUSH2 0x699 JUMP JUMPDEST SWAP3 POP DUP3 DUP3 MUL PUSH2 0x77A DUP2 PUSH2 0x699 JUMP JUMPDEST SWAP2 POP PUSH32 0x8000000000000000000000000000000000000000000000000000000000000000 DUP5 EQ PUSH0 DUP5 SLT AND ISZERO PUSH2 0x7B1 JUMPI PUSH2 0x7B0 PUSH2 0x589 JUMP JUMPDEST JUMPDEST DUP3 DUP3 SDIV DUP5 EQ DUP4 ISZERO OR PUSH2 0x7C6 JUMPI PUSH2 0x7C5 PUSH2 0x589 JUMP JUMPDEST JUMPDEST POP SWAP3 SWAP2 POP POP JUMP INVALID LOG2 PUSH5 0x6970667358 0x22 SLT KECCAK256 BLOBBASEFEE 0xA5 PUSH16 0x9BC77613EB87934298DC949A83A3CC30 COINBASE SGT 0xDA RETURNDATACOPY RETURNDATACOPY 0xFB DUP2 CALLCODE 0xB1 0xBC PC 0xEB DIV PUSH5 0x736F6C6343 STOP ADDMOD XOR STOP CALLER "
				},
				"gasEstimates": {
					"creation": {
						"codeDepositCost": "410200",
						"executionCost": "22552",
						"totalCost": "432752"
					},
					"external": {
						"addressToAmount(address)": "2824",
						"fund()": "infinite",
						"funders(uint256)": "5010",
						"minimumUsd()": "2402",
						"val()": "2425"
					}
				},
				"methodIdentifiers": {
					"addressToAmount(address)": "3c7e7d28",
					"fund()": "b60d4288",
					"funders(uint256)": "dc0d3dff",
					"minimumUsd()": "098de820",
					"val()": "3c6bb436"
				}
			},
			"storageLayout": {
				"storage": [
					{
						"astId": 57,
						"contract": "contracts/fundMe.sol:fundeMe",
						"label": "minimumUsd",
						"offset": 0,
						"slot": "0",
						"type": "t_uint256"
					},
					{
						"astId": 60,
						"contract": "contracts/fundMe.sol:fundeMe",
						"label": "funders",
						"offset": 0,
						"slot": "1",
						"type": "t_array(t_address)dyn_storage"
					},
					{
						"astId": 64,
						"contract": "contracts/fundMe.sol:fundeMe",
						"label": "addressToAmount",
						"offset": 0,
						"slot": "2",
						"type": "t_mapping(t_address,t_uint256)"
					},
					{
						"astId": 66,
						"contract": "contracts/fundMe.sol:fundeMe",
						"label": "val",
						"offset": 0,
						"slot": "3",
						"type": "t_uint256"
					}
				],
				"types": {
					"t_address": {
						"encoding": "inplace",
						"label": "address",
						"numberOfBytes": "20"
					},
					"t_array(t_address)dyn_storage": {
						"base": "t_address",
						"encoding": "dynamic_array",
						"label": "address[]",
						"numberOfBytes": "32"
					},
					"t_mapping(t_address,t_uint256)": {
						"encoding": "mapping",
						"key": "t_address",
						"label": "mapping(address => uint256)",
						"numberOfBytes": "32",
						"value": "t_uint256"
					},
					"t_uint256": {
						"encoding": "inplace",
						"label": "uint256",
						"numberOfBytes": "32"
					}
				}
			},
			"userdoc": {
				"kind": "user",
				"methods": {},
				"version": 1
			}
		}
	}
}