{
	"contracts/fundMe.sol": {
		"fundeMe": {
			"abi": [
				{
					"inputs": [],
					"stateMutability": "nonpayable",
					"type": "constructor"
				},
				{
					"inputs": [],
					"name": "notOwner",
					"type": "error"
				},
				{
					"inputs": [],
					"name": "MINIMUM_USD",
					"outputs": [
						{
							"internalType": "uint256",
							"name": "",
							"type": "uint256"
						}
					],
					"stateMutability": "view",
					"type": "function"
				},
				{
					"inputs": [
						{
							"internalType": "address",
							"name": "funder",
							"type": "address"
						}
					],
					"name": "addressToAmount",
					"outputs": [
						{
							"internalType": "uint256",
							"name": "amountFunded",
							"type": "uint256"
						}
					],
					"stateMutability": "view",
					"type": "function"
				},
				{
					"inputs": [],
					"name": "fund",
					"outputs": [],
					"stateMutability": "payable",
					"type": "function"
				},
				{
					"inputs": [
						{
							"internalType": "uint256",
							"name": "",
							"type": "uint256"
						}
					],
					"name": "funders",
					"outputs": [
						{
							"internalType": "address",
							"name": "",
							"type": "address"
						}
					],
					"stateMutability": "view",
					"type": "function"
				},
				{
					"inputs": [],
					"name": "i_owner",
					"outputs": [
						{
							"internalType": "address",
							"name": "",
							"type": "address"
						}
					],
					"stateMutability": "view",
					"type": "function"
				},
				{
					"inputs": [],
					"name": "withdraw",
					"outputs": [],
					"stateMutability": "nonpayable",
					"type": "function"
				}
			],
			"devdoc": {
				"kind": "dev",
				"methods": {},
				"version": 1
			},
			"evm": {
				"assembly": "    /* \"contracts/fundMe.sol\":202:1999  contract fundeMe {... */\n  mstore(0x40, 0xa0)\n    /* \"contracts/fundMe.sol\":459:509  constructor(){... */\n  callvalue\n  dup1\n  iszero\n  tag_1\n  jumpi\n  0x00\n  dup1\n  revert\ntag_1:\n  pop\n    /* \"contracts/fundMe.sol\":492:502  msg.sender */\n  caller\n    /* \"contracts/fundMe.sol\":482:502  i_owner = msg.sender */\n  0xffffffffffffffffffffffffffffffffffffffff\n  and\n  0x80\n  dup2\n  0xffffffffffffffffffffffffffffffffffffffff\n  and\n  dup2\n  mstore\n  pop\n  pop\n    /* \"contracts/fundMe.sol\":202:1999  contract fundeMe {... */\n  mload(0x80)\n  codecopy(0x00, dataOffset(sub_0), dataSize(sub_0))\n  0x00\n  assignImmutable(\"0x35bb2e240092263378f77ea1e9c278099a33b604c4c4e26d13ea227e8bb74470\")\n  return(0x00, dataSize(sub_0))\nstop\n\nsub_0: assembly {\n        /* \"contracts/fundMe.sol\":202:1999  contract fundeMe {... */\n      mstore(0x40, 0x80)\n      jumpi(tag_1, lt(calldatasize, 0x04))\n      shr(0xe0, calldataload(0x00))\n      dup1\n      0x3c7e7d28\n      eq\n      tag_2\n      jumpi\n      dup1\n      0x3ccfd60b\n      eq\n      tag_3\n      jumpi\n      dup1\n      0x6b69a592\n      eq\n      tag_4\n      jumpi\n      dup1\n      0xb60d4288\n      eq\n      tag_5\n      jumpi\n      dup1\n      0xdba6335f\n      eq\n      tag_6\n      jumpi\n      dup1\n      0xdc0d3dff\n      eq\n      tag_7\n      jumpi\n    tag_1:\n      0x00\n      dup1\n      revert\n        /* \"contracts/fundMe.sol\":343:413  mapping(address funder => uint256 amountFunded) public addressToAmount */\n    tag_2:\n      callvalue\n      dup1\n      iszero\n      tag_8\n      jumpi\n      0x00\n      dup1\n      revert\n    tag_8:\n      pop\n      tag_9\n      0x04\n      dup1\n      calldatasize\n      sub\n      dup2\n      add\n      swap1\n      tag_10\n      swap2\n      swap1\n      tag_11\n      jump\t// in\n    tag_10:\n      tag_12\n      jump\t// in\n    tag_9:\n      mload(0x40)\n      tag_13\n      swap2\n      swap1\n      tag_14\n      jump\t// in\n    tag_13:\n      mload(0x40)\n      dup1\n      swap2\n      sub\n      swap1\n      return\n        /* \"contracts/fundMe.sol\":928:1812  function withdraw() public onlyOwner {... */\n    tag_3:\n      callvalue\n      dup1\n      iszero\n      tag_15\n      jumpi\n      0x00\n      dup1\n      revert\n    tag_15:\n      pop\n      tag_16\n      tag_17\n      jump\t// in\n    tag_16:\n      stop\n        /* \"contracts/fundMe.sol\":264:306  uint256 public constant MINIMUM_USD = 5e18 */\n    tag_4:\n      callvalue\n      dup1\n      iszero\n      tag_18\n      jumpi\n      0x00\n      dup1\n      revert\n    tag_18:\n      pop\n      tag_19\n      tag_20\n      jump\t// in\n    tag_19:\n      mload(0x40)\n      tag_21\n      swap2\n      swap1\n      tag_14\n      jump\t// in\n    tag_21:\n      mload(0x40)\n      dup1\n      swap2\n      sub\n      swap1\n      return\n        /* \"contracts/fundMe.sol\":515:922  function fund() public payable {... */\n    tag_5:\n      tag_22\n      tag_23\n      jump\t// in\n    tag_22:\n      stop\n        /* \"contracts/fundMe.sol\":420:452  address public immutable i_owner */\n    tag_6:\n      callvalue\n      dup1\n      iszero\n      tag_24\n      jumpi\n      0x00\n      dup1\n      revert\n    tag_24:\n      pop\n      tag_25\n      tag_26\n      jump\t// in\n    tag_25:\n      mload(0x40)\n      tag_27\n      swap2\n      swap1\n      tag_28\n      jump\t// in\n    tag_27:\n      mload(0x40)\n      dup1\n      swap2\n      sub\n      swap1\n      return\n        /* \"contracts/fundMe.sol\":313:337  address[] public funders */\n    tag_7:\n      callvalue\n      dup1\n      iszero\n      tag_29\n      jumpi\n      0x00\n      dup1\n      revert\n    tag_29:\n      pop\n      tag_30\n      0x04\n      dup1\n      calldatasize\n      sub\n      dup2\n      add\n      swap1\n      tag_31\n      swap2\n      swap1\n      tag_32\n      jump\t// in\n    tag_31:\n      tag_33\n      jump\t// in\n    tag_30:\n      mload(0x40)\n      tag_34\n      swap2\n      swap1\n      tag_28\n      jump\t// in\n    tag_34:\n      mload(0x40)\n      dup1\n      swap2\n      sub\n      swap1\n      return\n        /* \"contracts/fundMe.sol\":343:413  mapping(address funder => uint256 amountFunded) public addressToAmount */\n    tag_12:\n      mstore(0x20, 0x01)\n      dup1\n      0x00\n      mstore\n      keccak256(0x00, 0x40)\n      0x00\n      swap2\n      pop\n      swap1\n      pop\n      sload\n      dup2\n      jump\t// out\n        /* \"contracts/fundMe.sol\":928:1812  function withdraw() public onlyOwner {... */\n    tag_17:\n        /* \"contracts/fundMe.sol\":1952:1959  i_owner */\n      immutable(\"0x35bb2e240092263378f77ea1e9c278099a33b604c4c4e26d13ea227e8bb74470\")\n        /* \"contracts/fundMe.sol\":1938:1959  msg.sender != i_owner */\n      0xffffffffffffffffffffffffffffffffffffffff\n      and\n        /* \"contracts/fundMe.sol\":1938:1948  msg.sender */\n      caller\n        /* \"contracts/fundMe.sol\":1938:1959  msg.sender != i_owner */\n      0xffffffffffffffffffffffffffffffffffffffff\n      and\n      eq\n        /* \"contracts/fundMe.sol\":1935:1978  if(msg.sender != i_owner) revert notOwner() */\n      tag_36\n      jumpi\n        /* \"contracts/fundMe.sol\":1968:1978  notOwner() */\n      mload(0x40)\n      0x251c9d6300000000000000000000000000000000000000000000000000000000\n      dup2\n      mstore\n      0x04\n      add\n      mload(0x40)\n      dup1\n      swap2\n      sub\n      swap1\n      revert\n        /* \"contracts/fundMe.sol\":1935:1978  if(msg.sender != i_owner) revert notOwner() */\n    tag_36:\n        /* \"contracts/fundMe.sol\":982:999  uint256 funderIdx */\n      0x00\n        /* \"contracts/fundMe.sol\":977:1161  for (uint256 funderIdx = 0; funderIdx < funders.length; funderIdx++) {... */\n    tag_38:\n        /* \"contracts/fundMe.sol\":1017:1024  funders */\n      0x00\n        /* \"contracts/fundMe.sol\":1017:1031  funders.length */\n      dup1\n      sload\n      swap1\n      pop\n        /* \"contracts/fundMe.sol\":1005:1014  funderIdx */\n      dup2\n        /* \"contracts/fundMe.sol\":1005:1031  funderIdx < funders.length */\n      lt\n        /* \"contracts/fundMe.sol\":977:1161  for (uint256 funderIdx = 0; funderIdx < funders.length; funderIdx++) {... */\n      iszero\n      tag_39\n      jumpi\n        /* \"contracts/fundMe.sol\":1060:1081  address funderAddress */\n      0x00\n        /* \"contracts/fundMe.sol\":1084:1091  funders */\n      dup1\n        /* \"contracts/fundMe.sol\":1092:1101  funderIdx */\n      dup3\n        /* \"contracts/fundMe.sol\":1084:1102  funders[funderIdx] */\n      dup2\n      sload\n      dup2\n      lt\n      tag_41\n      jumpi\n      tag_42\n      tag_43\n      jump\t// in\n    tag_42:\n    tag_41:\n      swap1\n      0x00\n      mstore\n      keccak256(0x00, 0x20)\n      add\n      0x00\n      swap1\n      sload\n      swap1\n      0x0100\n      exp\n      swap1\n      div\n      0xffffffffffffffffffffffffffffffffffffffff\n      and\n        /* \"contracts/fundMe.sol\":1060:1102  address funderAddress = funders[funderIdx] */\n      swap1\n      pop\n        /* \"contracts/fundMe.sol\":1149:1150  0 */\n      0x00\n        /* \"contracts/fundMe.sol\":1116:1131  addressToAmount */\n      0x01\n        /* \"contracts/fundMe.sol\":1116:1146  addressToAmount[funderAddress] */\n      0x00\n        /* \"contracts/fundMe.sol\":1132:1145  funderAddress */\n      dup4\n        /* \"contracts/fundMe.sol\":1116:1146  addressToAmount[funderAddress] */\n      0xffffffffffffffffffffffffffffffffffffffff\n      and\n      0xffffffffffffffffffffffffffffffffffffffff\n      and\n      dup2\n      mstore\n      0x20\n      add\n      swap1\n      dup2\n      mstore\n      0x20\n      add\n      0x00\n      keccak256\n        /* \"contracts/fundMe.sol\":1116:1150  addressToAmount[funderAddress] = 0 */\n      dup2\n      swap1\n      sstore\n      pop\n        /* \"contracts/fundMe.sol\":1046:1161  {... */\n      pop\n        /* \"contracts/fundMe.sol\":1033:1044  funderIdx++ */\n      dup1\n      dup1\n      0x01\n      add\n      swap2\n      pop\n      pop\n        /* \"contracts/fundMe.sol\":977:1161  for (uint256 funderIdx = 0; funderIdx < funders.length; funderIdx++) {... */\n      jump(tag_38)\n    tag_39:\n      pop\n        /* \"contracts/fundMe.sol\":1195:1196  0 */\n      0x00\n        /* \"contracts/fundMe.sol\":1181:1197  new address[](0) */\n      0xffffffffffffffff\n      dup2\n      gt\n      iszero\n      tag_45\n      jumpi\n      tag_46\n      tag_47\n      jump\t// in\n    tag_46:\n    tag_45:\n      mload(0x40)\n      swap1\n      dup1\n      dup3\n      mstore\n      dup1\n      0x20\n      mul\n      0x20\n      add\n      dup3\n      add\n      0x40\n      mstore\n      dup1\n      iszero\n      tag_48\n      jumpi\n      dup2\n      0x20\n      add\n      0x20\n      dup3\n      mul\n      dup1\n      calldatasize\n      dup4\n      calldatacopy\n      dup1\n      dup3\n      add\n      swap2\n      pop\n      pop\n      swap1\n      pop\n    tag_48:\n      pop\n        /* \"contracts/fundMe.sol\":1171:1178  funders */\n      0x00\n        /* \"contracts/fundMe.sol\":1171:1197  funders = new address[](0) */\n      swap1\n      dup1\n      mload\n      swap1\n      0x20\n      add\n      swap1\n      tag_49\n      swap3\n      swap2\n      swap1\n      tag_50\n      jump\t// in\n    tag_49:\n      pop\n        /* \"contracts/fundMe.sol\":1587:1603  bool callSuccess */\n      0x00\n        /* \"contracts/fundMe.sol\":1617:1627  msg.sender */\n      caller\n        /* \"contracts/fundMe.sol\":1609:1633  payable(msg.sender).call */\n      0xffffffffffffffffffffffffffffffffffffffff\n      and\n        /* \"contracts/fundMe.sol\":1655:1676  address(this).balance */\n      selfbalance\n        /* \"contracts/fundMe.sol\":1609:1690  payable(msg.sender).call {... */\n      mload(0x40)\n      tag_51\n      swap1\n      tag_52\n      jump\t// in\n    tag_51:\n      0x00\n      mload(0x40)\n      dup1\n      dup4\n      sub\n      dup2\n      dup6\n      dup8\n      gas\n      call\n      swap3\n      pop\n      pop\n      pop\n      returndatasize\n      dup1\n      0x00\n      dup2\n      eq\n      tag_55\n      jumpi\n      mload(0x40)\n      swap2\n      pop\n      and(add(returndatasize, 0x3f), not(0x1f))\n      dup3\n      add\n      0x40\n      mstore\n      returndatasize\n      dup3\n      mstore\n      returndatasize\n      0x00\n      0x20\n      dup5\n      add\n      returndatacopy\n      jump(tag_54)\n    tag_55:\n      0x60\n      swap2\n      pop\n    tag_54:\n      pop\n        /* \"contracts/fundMe.sol\":1586:1690  (bool callSuccess, ) = payable(msg.sender).call {... */\n      pop\n      swap1\n      pop\n        /* \"contracts/fundMe.sol\":1778:1789  callSuccess */\n      dup1\n        /* \"contracts/fundMe.sol\":1770:1805  require(callSuccess, \"Call Failed\") */\n      tag_56\n      jumpi\n      mload(0x40)\n      0x08c379a000000000000000000000000000000000000000000000000000000000\n      dup2\n      mstore\n      0x04\n      add\n      tag_57\n      swap1\n      tag_58\n      jump\t// in\n    tag_57:\n      mload(0x40)\n      dup1\n      swap2\n      sub\n      swap1\n      revert\n    tag_56:\n        /* \"contracts/fundMe.sol\":965:1812  {... */\n      pop\n        /* \"contracts/fundMe.sol\":928:1812  function withdraw() public onlyOwner {... */\n      jump\t// out\n        /* \"contracts/fundMe.sol\":264:306  uint256 public constant MINIMUM_USD = 5e18 */\n    tag_20:\n        /* \"contracts/fundMe.sol\":302:306  5e18 */\n      0x4563918244f40000\n        /* \"contracts/fundMe.sol\":264:306  uint256 public constant MINIMUM_USD = 5e18 */\n      dup2\n      jump\t// out\n        /* \"contracts/fundMe.sol\":515:922  function fund() public payable {... */\n    tag_23:\n        /* \"contracts/fundMe.sol\":302:306  5e18 */\n      0x4563918244f40000\n        /* \"contracts/fundMe.sol\":577:606  msg.value.getConversionRate() */\n      tag_60\n        /* \"contracts/fundMe.sol\":577:586  msg.value */\n      callvalue\n        /* \"contracts/fundMe.sol\":577:604  msg.value.getConversionRate */\n      tag_61\n        /* \"contracts/fundMe.sol\":577:606  msg.value.getConversionRate() */\n      jump\t// in\n    tag_60:\n        /* \"contracts/fundMe.sol\":577:621  msg.value.getConversionRate() >= MINIMUM_USD */\n      lt\n      iszero\n        /* \"contracts/fundMe.sol\":556:669  require(... */\n      tag_62\n      jumpi\n      mload(0x40)\n      0x08c379a000000000000000000000000000000000000000000000000000000000\n      dup2\n      mstore\n      0x04\n      add\n      tag_63\n      swap1\n      tag_64\n      jump\t// in\n    tag_63:\n      mload(0x40)\n      dup1\n      swap2\n      sub\n      swap1\n      revert\n    tag_62:\n        /* \"contracts/fundMe.sol\":773:780  funders */\n      0x00\n        /* \"contracts/fundMe.sol\":786:796  msg.sender */\n      caller\n        /* \"contracts/fundMe.sol\":773:797  funders.push(msg.sender) */\n      swap1\n      dup1\n      0x01\n      dup2\n      sload\n      add\n      dup1\n      dup3\n      sstore\n      dup1\n      swap2\n      pop\n      pop\n      0x01\n      swap1\n      sub\n      swap1\n      0x00\n      mstore\n      keccak256(0x00, 0x20)\n      add\n      0x00\n      swap1\n      swap2\n      swap1\n      swap2\n      swap1\n      swap2\n      0x0100\n      exp\n      dup2\n      sload\n      dup2\n      0xffffffffffffffffffffffffffffffffffffffff\n      mul\n      not\n      and\n      swap1\n      dup4\n      0xffffffffffffffffffffffffffffffffffffffff\n      and\n      mul\n      or\n      swap1\n      sstore\n      pop\n        /* \"contracts/fundMe.sol\":911:915  1e16 */\n      0x2386f26fc10000\n        /* \"contracts/fundMe.sol\":879:908  msg.value.getConversionRate() */\n      tag_66\n        /* \"contracts/fundMe.sol\":879:888  msg.value */\n      callvalue\n        /* \"contracts/fundMe.sol\":879:906  msg.value.getConversionRate */\n      tag_61\n        /* \"contracts/fundMe.sol\":879:908  msg.value.getConversionRate() */\n      jump\t// in\n    tag_66:\n        /* \"contracts/fundMe.sol\":879:915  msg.value.getConversionRate() / 1e16 */\n      tag_67\n      swap2\n      swap1\n      tag_68\n      jump\t// in\n    tag_67:\n        /* \"contracts/fundMe.sol\":849:864  addressToAmount */\n      0x01\n        /* \"contracts/fundMe.sol\":849:876  addressToAmount[msg.sender] */\n      0x00\n        /* \"contracts/fundMe.sol\":865:875  msg.sender */\n      caller\n        /* \"contracts/fundMe.sol\":849:876  addressToAmount[msg.sender] */\n      0xffffffffffffffffffffffffffffffffffffffff\n      and\n      0xffffffffffffffffffffffffffffffffffffffff\n      and\n      dup2\n      mstore\n      0x20\n      add\n      swap1\n      dup2\n      mstore\n      0x20\n      add\n      0x00\n      keccak256\n      sload\n        /* \"contracts/fundMe.sol\":849:915  addressToAmount[msg.sender] + msg.value.getConversionRate() / 1e16 */\n      tag_69\n      swap2\n      swap1\n      tag_70\n      jump\t// in\n    tag_69:\n        /* \"contracts/fundMe.sol\":807:822  addressToAmount */\n      0x01\n        /* \"contracts/fundMe.sol\":807:834  addressToAmount[msg.sender] */\n      0x00\n        /* \"contracts/fundMe.sol\":823:833  msg.sender */\n      caller\n        /* \"contracts/fundMe.sol\":807:834  addressToAmount[msg.sender] */\n      0xffffffffffffffffffffffffffffffffffffffff\n      and\n      0xffffffffffffffffffffffffffffffffffffffff\n      and\n      dup2\n      mstore\n      0x20\n      add\n      swap1\n      dup2\n      mstore\n      0x20\n      add\n      0x00\n      keccak256\n        /* \"contracts/fundMe.sol\":807:915  addressToAmount[msg.sender] =... */\n      dup2\n      swap1\n      sstore\n      pop\n        /* \"contracts/fundMe.sol\":515:922  function fund() public payable {... */\n      jump\t// out\n        /* \"contracts/fundMe.sol\":420:452  address public immutable i_owner */\n    tag_26:\n      immutable(\"0x35bb2e240092263378f77ea1e9c278099a33b604c4c4e26d13ea227e8bb74470\")\n      dup2\n      jump\t// out\n        /* \"contracts/fundMe.sol\":313:337  address[] public funders */\n    tag_33:\n      0x00\n      dup2\n      dup2\n      sload\n      dup2\n      lt\n      tag_71\n      jumpi\n      0x00\n      dup1\n      revert\n    tag_71:\n      swap1\n      0x00\n      mstore\n      keccak256(0x00, 0x20)\n      add\n      0x00\n      swap2\n      pop\n      sload\n      swap1\n      0x0100\n      exp\n      swap1\n      div\n      0xffffffffffffffffffffffffffffffffffffffff\n      and\n      dup2\n      jump\t// out\n        /* \"contracts/priceConverter.sol\":711:940  function getConversionRate(uint256 ethAmount) internal view returns (uint256) {... */\n    tag_61:\n        /* \"contracts/priceConverter.sol\":780:787  uint256 */\n      0x00\n        /* \"contracts/priceConverter.sol\":810:826  uint256 ethPrice */\n      dup1\n        /* \"contracts/priceConverter.sol\":829:839  getPrice() */\n      tag_74\n        /* \"contracts/priceConverter.sol\":829:837  getPrice */\n      tag_75\n        /* \"contracts/priceConverter.sol\":829:839  getPrice() */\n      jump\t// in\n    tag_74:\n        /* \"contracts/priceConverter.sol\":810:839  uint256 ethPrice = getPrice() */\n      swap1\n      pop\n        /* \"contracts/priceConverter.sol\":850:871  uint256 ethPriceInUsd */\n      0x00\n        /* \"contracts/priceConverter.sol\":897:901  1e18 */\n      0x0de0b6b3a7640000\n        /* \"contracts/priceConverter.sol\":886:895  ethAmount */\n      dup5\n        /* \"contracts/priceConverter.sol\":875:883  ethPrice */\n      dup4\n        /* \"contracts/priceConverter.sol\":875:895  ethPrice * ethAmount */\n      tag_76\n      swap2\n      swap1\n      tag_77\n      jump\t// in\n    tag_76:\n        /* \"contracts/priceConverter.sol\":874:901  (ethPrice * ethAmount)/1e18 */\n      tag_78\n      swap2\n      swap1\n      tag_68\n      jump\t// in\n    tag_78:\n        /* \"contracts/priceConverter.sol\":850:901  uint256 ethPriceInUsd = (ethPrice * ethAmount)/1e18 */\n      swap1\n      pop\n        /* \"contracts/priceConverter.sol\":919:932  ethPriceInUsd */\n      dup1\n        /* \"contracts/priceConverter.sol\":912:932  return ethPriceInUsd */\n      swap3\n      pop\n      pop\n      pop\n        /* \"contracts/priceConverter.sol\":711:940  function getConversionRate(uint256 ethAmount) internal view returns (uint256) {... */\n      swap2\n      swap1\n      pop\n      jump\t// out\n        /* \"contracts/priceConverter.sol\":213:703  function getPrice() internal view returns (uint256) {... */\n    tag_75:\n        /* \"contracts/priceConverter.sol\":256:263  uint256 */\n      0x00\n        /* \"contracts/priceConverter.sol\":486:517  AggregatorV3Interface priceFeed */\n      dup1\n        /* \"contracts/priceConverter.sol\":542:584  0xfEefF7c3fB57d18C5C6Cdd71e45D2D0b4F9377bF */\n      0xfeeff7c3fb57d18c5c6cdd71e45d2d0b4f9377bf\n        /* \"contracts/priceConverter.sol\":486:585  AggregatorV3Interface priceFeed = AggregatorV3Interface(0xfEefF7c3fB57d18C5C6Cdd71e45D2D0b4F9377bF) */\n      swap1\n      pop\n        /* \"contracts/priceConverter.sol\":598:611  int256 answer */\n      0x00\n        /* \"contracts/priceConverter.sol\":618:627  priceFeed */\n      dup2\n        /* \"contracts/priceConverter.sol\":618:643  priceFeed.latestRoundData */\n      0xffffffffffffffffffffffffffffffffffffffff\n      and\n      0xfeaf968c\n        /* \"contracts/priceConverter.sol\":618:645  priceFeed.latestRoundData() */\n      mload(0x40)\n      dup2\n      0xffffffff\n      and\n      0xe0\n      shl\n      dup2\n      mstore\n      0x04\n      add\n      0xa0\n      mload(0x40)\n      dup1\n      dup4\n      sub\n      dup2\n      dup7\n      gas\n      staticcall\n      iszero\n      dup1\n      iszero\n      tag_81\n      jumpi\n      returndatasize\n      0x00\n      dup1\n      returndatacopy\n      revert(0x00, returndatasize)\n    tag_81:\n      pop\n      pop\n      pop\n      pop\n      mload(0x40)\n      returndatasize\n      not(0x1f)\n      0x1f\n      dup3\n      add\n      and\n      dup3\n      add\n      dup1\n      0x40\n      mstore\n      pop\n      dup2\n      add\n      swap1\n      tag_82\n      swap2\n      swap1\n      tag_83\n      jump\t// in\n    tag_82:\n        /* \"contracts/priceConverter.sol\":596:645  (,int256 answer,,,) = priceFeed.latestRoundData() */\n      pop\n      pop\n      pop\n      swap2\n      pop\n      pop\n        /* \"contracts/priceConverter.sol\":680:684  1e10 */\n      0x02540be400\n        /* \"contracts/priceConverter.sol\":671:677  answer */\n      dup2\n        /* \"contracts/priceConverter.sol\":671:684  answer * 1e10 */\n      tag_84\n      swap2\n      swap1\n      tag_85\n      jump\t// in\n    tag_84:\n        /* \"contracts/priceConverter.sol\":656:685  return uint256(answer * 1e10) */\n      swap3\n      pop\n      pop\n      pop\n        /* \"contracts/priceConverter.sol\":213:703  function getPrice() internal view returns (uint256) {... */\n      swap1\n      jump\t// out\n    tag_50:\n      dup3\n      dup1\n      sload\n      dup3\n      dup3\n      sstore\n      swap1\n      0x00\n      mstore\n      keccak256(0x00, 0x20)\n      swap1\n      dup2\n      add\n      swap3\n      dup3\n      iszero\n      tag_86\n      jumpi\n      swap2\n      0x20\n      mul\n      dup3\n      add\n    tag_87:\n      dup3\n      dup2\n      gt\n      iszero\n      tag_88\n      jumpi\n      dup3\n      mload\n      dup3\n      exp(0x0100, 0x00)\n      dup2\n      sload\n      dup2\n      0xffffffffffffffffffffffffffffffffffffffff\n      mul\n      not\n      and\n      swap1\n      dup4\n      0xffffffffffffffffffffffffffffffffffffffff\n      and\n      mul\n      or\n      swap1\n      sstore\n      pop\n      swap2\n      0x20\n      add\n      swap2\n      swap1\n      0x01\n      add\n      swap1\n      jump(tag_87)\n    tag_88:\n    tag_86:\n      pop\n      swap1\n      pop\n      tag_89\n      swap2\n      swap1\n      tag_90\n      jump\t// in\n    tag_89:\n      pop\n      swap1\n      jump\t// out\n    tag_90:\n    tag_91:\n      dup1\n      dup3\n      gt\n      iszero\n      tag_92\n      jumpi\n      0x00\n      dup2\n      0x00\n      swap1\n      sstore\n      pop\n      0x01\n      add\n      jump(tag_91)\n    tag_92:\n      pop\n      swap1\n      jump\t// out\n        /* \"#utility.yul\":88:205   */\n    tag_94:\n        /* \"#utility.yul\":197:198   */\n      0x00\n        /* \"#utility.yul\":194:195   */\n      dup1\n        /* \"#utility.yul\":187:199   */\n      revert\n        /* \"#utility.yul\":334:460   */\n    tag_96:\n        /* \"#utility.yul\":371:378   */\n      0x00\n        /* \"#utility.yul\":411:453   */\n      0xffffffffffffffffffffffffffffffffffffffff\n        /* \"#utility.yul\":404:409   */\n      dup3\n        /* \"#utility.yul\":400:454   */\n      and\n        /* \"#utility.yul\":389:454   */\n      swap1\n      pop\n        /* \"#utility.yul\":334:460   */\n      swap2\n      swap1\n      pop\n      jump\t// out\n        /* \"#utility.yul\":466:562   */\n    tag_97:\n        /* \"#utility.yul\":503:510   */\n      0x00\n        /* \"#utility.yul\":532:556   */\n      tag_128\n        /* \"#utility.yul\":550:555   */\n      dup3\n        /* \"#utility.yul\":532:556   */\n      tag_96\n      jump\t// in\n    tag_128:\n        /* \"#utility.yul\":521:556   */\n      swap1\n      pop\n        /* \"#utility.yul\":466:562   */\n      swap2\n      swap1\n      pop\n      jump\t// out\n        /* \"#utility.yul\":568:690   */\n    tag_98:\n        /* \"#utility.yul\":641:665   */\n      tag_130\n        /* \"#utility.yul\":659:664   */\n      dup2\n        /* \"#utility.yul\":641:665   */\n      tag_97\n      jump\t// in\n    tag_130:\n        /* \"#utility.yul\":634:639   */\n      dup2\n        /* \"#utility.yul\":631:666   */\n      eq\n        /* \"#utility.yul\":621:684   */\n      tag_131\n      jumpi\n        /* \"#utility.yul\":680:681   */\n      0x00\n        /* \"#utility.yul\":677:678   */\n      dup1\n        /* \"#utility.yul\":670:682   */\n      revert\n        /* \"#utility.yul\":621:684   */\n    tag_131:\n        /* \"#utility.yul\":568:690   */\n      pop\n      jump\t// out\n        /* \"#utility.yul\":696:835   */\n    tag_99:\n        /* \"#utility.yul\":742:747   */\n      0x00\n        /* \"#utility.yul\":780:786   */\n      dup2\n        /* \"#utility.yul\":767:787   */\n      calldataload\n        /* \"#utility.yul\":758:787   */\n      swap1\n      pop\n        /* \"#utility.yul\":796:829   */\n      tag_133\n        /* \"#utility.yul\":823:828   */\n      dup2\n        /* \"#utility.yul\":796:829   */\n      tag_98\n      jump\t// in\n    tag_133:\n        /* \"#utility.yul\":696:835   */\n      swap3\n      swap2\n      pop\n      pop\n      jump\t// out\n        /* \"#utility.yul\":841:1170   */\n    tag_11:\n        /* \"#utility.yul\":900:906   */\n      0x00\n        /* \"#utility.yul\":949:951   */\n      0x20\n        /* \"#utility.yul\":937:946   */\n      dup3\n        /* \"#utility.yul\":928:935   */\n      dup5\n        /* \"#utility.yul\":924:947   */\n      sub\n        /* \"#utility.yul\":920:952   */\n      slt\n        /* \"#utility.yul\":917:1036   */\n      iszero\n      tag_135\n      jumpi\n        /* \"#utility.yul\":955:1034   */\n      tag_136\n      tag_94\n      jump\t// in\n    tag_136:\n        /* \"#utility.yul\":917:1036   */\n    tag_135:\n        /* \"#utility.yul\":1075:1076   */\n      0x00\n        /* \"#utility.yul\":1100:1153   */\n      tag_137\n        /* \"#utility.yul\":1145:1152   */\n      dup5\n        /* \"#utility.yul\":1136:1142   */\n      dup3\n        /* \"#utility.yul\":1125:1134   */\n      dup6\n        /* \"#utility.yul\":1121:1143   */\n      add\n        /* \"#utility.yul\":1100:1153   */\n      tag_99\n      jump\t// in\n    tag_137:\n        /* \"#utility.yul\":1090:1153   */\n      swap2\n      pop\n        /* \"#utility.yul\":1046:1163   */\n      pop\n        /* \"#utility.yul\":841:1170   */\n      swap3\n      swap2\n      pop\n      pop\n      jump\t// out\n        /* \"#utility.yul\":1176:1253   */\n    tag_100:\n        /* \"#utility.yul\":1213:1220   */\n      0x00\n        /* \"#utility.yul\":1242:1247   */\n      dup2\n        /* \"#utility.yul\":1231:1247   */\n      swap1\n      pop\n        /* \"#utility.yul\":1176:1253   */\n      swap2\n      swap1\n      pop\n      jump\t// out\n        /* \"#utility.yul\":1259:1377   */\n    tag_101:\n        /* \"#utility.yul\":1346:1370   */\n      tag_140\n        /* \"#utility.yul\":1364:1369   */\n      dup2\n        /* \"#utility.yul\":1346:1370   */\n      tag_100\n      jump\t// in\n    tag_140:\n        /* \"#utility.yul\":1341:1344   */\n      dup3\n        /* \"#utility.yul\":1334:1371   */\n      mstore\n        /* \"#utility.yul\":1259:1377   */\n      pop\n      pop\n      jump\t// out\n        /* \"#utility.yul\":1383:1605   */\n    tag_14:\n        /* \"#utility.yul\":1476:1480   */\n      0x00\n        /* \"#utility.yul\":1514:1516   */\n      0x20\n        /* \"#utility.yul\":1503:1512   */\n      dup3\n        /* \"#utility.yul\":1499:1517   */\n      add\n        /* \"#utility.yul\":1491:1517   */\n      swap1\n      pop\n        /* \"#utility.yul\":1527:1598   */\n      tag_142\n        /* \"#utility.yul\":1595:1596   */\n      0x00\n        /* \"#utility.yul\":1584:1593   */\n      dup4\n        /* \"#utility.yul\":1580:1597   */\n      add\n        /* \"#utility.yul\":1571:1577   */\n      dup5\n        /* \"#utility.yul\":1527:1598   */\n      tag_101\n      jump\t// in\n    tag_142:\n        /* \"#utility.yul\":1383:1605   */\n      swap3\n      swap2\n      pop\n      pop\n      jump\t// out\n        /* \"#utility.yul\":1611:1729   */\n    tag_102:\n        /* \"#utility.yul\":1698:1722   */\n      tag_144\n        /* \"#utility.yul\":1716:1721   */\n      dup2\n        /* \"#utility.yul\":1698:1722   */\n      tag_97\n      jump\t// in\n    tag_144:\n        /* \"#utility.yul\":1693:1696   */\n      dup3\n        /* \"#utility.yul\":1686:1723   */\n      mstore\n        /* \"#utility.yul\":1611:1729   */\n      pop\n      pop\n      jump\t// out\n        /* \"#utility.yul\":1735:1957   */\n    tag_28:\n        /* \"#utility.yul\":1828:1832   */\n      0x00\n        /* \"#utility.yul\":1866:1868   */\n      0x20\n        /* \"#utility.yul\":1855:1864   */\n      dup3\n        /* \"#utility.yul\":1851:1869   */\n      add\n        /* \"#utility.yul\":1843:1869   */\n      swap1\n      pop\n        /* \"#utility.yul\":1879:1950   */\n      tag_146\n        /* \"#utility.yul\":1947:1948   */\n      0x00\n        /* \"#utility.yul\":1936:1945   */\n      dup4\n        /* \"#utility.yul\":1932:1949   */\n      add\n        /* \"#utility.yul\":1923:1929   */\n      dup5\n        /* \"#utility.yul\":1879:1950   */\n      tag_102\n      jump\t// in\n    tag_146:\n        /* \"#utility.yul\":1735:1957   */\n      swap3\n      swap2\n      pop\n      pop\n      jump\t// out\n        /* \"#utility.yul\":1963:2085   */\n    tag_103:\n        /* \"#utility.yul\":2036:2060   */\n      tag_148\n        /* \"#utility.yul\":2054:2059   */\n      dup2\n        /* \"#utility.yul\":2036:2060   */\n      tag_100\n      jump\t// in\n    tag_148:\n        /* \"#utility.yul\":2029:2034   */\n      dup2\n        /* \"#utility.yul\":2026:2061   */\n      eq\n        /* \"#utility.yul\":2016:2079   */\n      tag_149\n      jumpi\n        /* \"#utility.yul\":2075:2076   */\n      0x00\n        /* \"#utility.yul\":2072:2073   */\n      dup1\n        /* \"#utility.yul\":2065:2077   */\n      revert\n        /* \"#utility.yul\":2016:2079   */\n    tag_149:\n        /* \"#utility.yul\":1963:2085   */\n      pop\n      jump\t// out\n        /* \"#utility.yul\":2091:2230   */\n    tag_104:\n        /* \"#utility.yul\":2137:2142   */\n      0x00\n        /* \"#utility.yul\":2175:2181   */\n      dup2\n        /* \"#utility.yul\":2162:2182   */\n      calldataload\n        /* \"#utility.yul\":2153:2182   */\n      swap1\n      pop\n        /* \"#utility.yul\":2191:2224   */\n      tag_151\n        /* \"#utility.yul\":2218:2223   */\n      dup2\n        /* \"#utility.yul\":2191:2224   */\n      tag_103\n      jump\t// in\n    tag_151:\n        /* \"#utility.yul\":2091:2230   */\n      swap3\n      swap2\n      pop\n      pop\n      jump\t// out\n        /* \"#utility.yul\":2236:2565   */\n    tag_32:\n        /* \"#utility.yul\":2295:2301   */\n      0x00\n        /* \"#utility.yul\":2344:2346   */\n      0x20\n        /* \"#utility.yul\":2332:2341   */\n      dup3\n        /* \"#utility.yul\":2323:2330   */\n      dup5\n        /* \"#utility.yul\":2319:2342   */\n      sub\n        /* \"#utility.yul\":2315:2347   */\n      slt\n        /* \"#utility.yul\":2312:2431   */\n      iszero\n      tag_153\n      jumpi\n        /* \"#utility.yul\":2350:2429   */\n      tag_154\n      tag_94\n      jump\t// in\n    tag_154:\n        /* \"#utility.yul\":2312:2431   */\n    tag_153:\n        /* \"#utility.yul\":2470:2471   */\n      0x00\n        /* \"#utility.yul\":2495:2548   */\n      tag_155\n        /* \"#utility.yul\":2540:2547   */\n      dup5\n        /* \"#utility.yul\":2531:2537   */\n      dup3\n        /* \"#utility.yul\":2520:2529   */\n      dup6\n        /* \"#utility.yul\":2516:2538   */\n      add\n        /* \"#utility.yul\":2495:2548   */\n      tag_104\n      jump\t// in\n    tag_155:\n        /* \"#utility.yul\":2485:2548   */\n      swap2\n      pop\n        /* \"#utility.yul\":2441:2558   */\n      pop\n        /* \"#utility.yul\":2236:2565   */\n      swap3\n      swap2\n      pop\n      pop\n      jump\t// out\n        /* \"#utility.yul\":2571:2751   */\n    tag_43:\n        /* \"#utility.yul\":2619:2696   */\n      0x4e487b7100000000000000000000000000000000000000000000000000000000\n        /* \"#utility.yul\":2616:2617   */\n      0x00\n        /* \"#utility.yul\":2609:2697   */\n      mstore\n        /* \"#utility.yul\":2716:2720   */\n      0x32\n        /* \"#utility.yul\":2713:2714   */\n      0x04\n        /* \"#utility.yul\":2706:2721   */\n      mstore\n        /* \"#utility.yul\":2740:2744   */\n      0x24\n        /* \"#utility.yul\":2737:2738   */\n      0x00\n        /* \"#utility.yul\":2730:2745   */\n      revert\n        /* \"#utility.yul\":2757:2937   */\n    tag_47:\n        /* \"#utility.yul\":2805:2882   */\n      0x4e487b7100000000000000000000000000000000000000000000000000000000\n        /* \"#utility.yul\":2802:2803   */\n      0x00\n        /* \"#utility.yul\":2795:2883   */\n      mstore\n        /* \"#utility.yul\":2902:2906   */\n      0x41\n        /* \"#utility.yul\":2899:2900   */\n      0x04\n        /* \"#utility.yul\":2892:2907   */\n      mstore\n        /* \"#utility.yul\":2926:2930   */\n      0x24\n        /* \"#utility.yul\":2923:2924   */\n      0x00\n        /* \"#utility.yul\":2916:2931   */\n      revert\n        /* \"#utility.yul\":2943:3090   */\n    tag_105:\n        /* \"#utility.yul\":3044:3055   */\n      0x00\n        /* \"#utility.yul\":3081:3084   */\n      dup2\n        /* \"#utility.yul\":3066:3084   */\n      swap1\n      pop\n        /* \"#utility.yul\":2943:3090   */\n      swap3\n      swap2\n      pop\n      pop\n      jump\t// out\n        /* \"#utility.yul\":3096:3210   */\n    tag_106:\n      pop\n      jump\t// out\n        /* \"#utility.yul\":3216:3614   */\n    tag_107:\n        /* \"#utility.yul\":3375:3378   */\n      0x00\n        /* \"#utility.yul\":3396:3479   */\n      tag_161\n        /* \"#utility.yul\":3477:3478   */\n      0x00\n        /* \"#utility.yul\":3472:3475   */\n      dup4\n        /* \"#utility.yul\":3396:3479   */\n      tag_105\n      jump\t// in\n    tag_161:\n        /* \"#utility.yul\":3389:3479   */\n      swap2\n      pop\n        /* \"#utility.yul\":3488:3581   */\n      tag_162\n        /* \"#utility.yul\":3577:3580   */\n      dup3\n        /* \"#utility.yul\":3488:3581   */\n      tag_106\n      jump\t// in\n    tag_162:\n        /* \"#utility.yul\":3606:3607   */\n      0x00\n        /* \"#utility.yul\":3601:3604   */\n      dup3\n        /* \"#utility.yul\":3597:3608   */\n      add\n        /* \"#utility.yul\":3590:3608   */\n      swap1\n      pop\n        /* \"#utility.yul\":3216:3614   */\n      swap2\n      swap1\n      pop\n      jump\t// out\n        /* \"#utility.yul\":3620:3999   */\n    tag_52:\n        /* \"#utility.yul\":3804:3807   */\n      0x00\n        /* \"#utility.yul\":3826:3973   */\n      tag_164\n        /* \"#utility.yul\":3969:3972   */\n      dup3\n        /* \"#utility.yul\":3826:3973   */\n      tag_107\n      jump\t// in\n    tag_164:\n        /* \"#utility.yul\":3819:3973   */\n      swap2\n      pop\n        /* \"#utility.yul\":3990:3993   */\n      dup2\n        /* \"#utility.yul\":3983:3993   */\n      swap1\n      pop\n        /* \"#utility.yul\":3620:3999   */\n      swap2\n      swap1\n      pop\n      jump\t// out\n        /* \"#utility.yul\":4005:4174   */\n    tag_108:\n        /* \"#utility.yul\":4089:4100   */\n      0x00\n        /* \"#utility.yul\":4123:4129   */\n      dup3\n        /* \"#utility.yul\":4118:4121   */\n      dup3\n        /* \"#utility.yul\":4111:4130   */\n      mstore\n        /* \"#utility.yul\":4163:4167   */\n      0x20\n        /* \"#utility.yul\":4158:4161   */\n      dup3\n        /* \"#utility.yul\":4154:4168   */\n      add\n        /* \"#utility.yul\":4139:4168   */\n      swap1\n      pop\n        /* \"#utility.yul\":4005:4174   */\n      swap3\n      swap2\n      pop\n      pop\n      jump\t// out\n        /* \"#utility.yul\":4180:4341   */\n    tag_109:\n        /* \"#utility.yul\":4320:4333   */\n      0x43616c6c204661696c6564000000000000000000000000000000000000000000\n        /* \"#utility.yul\":4316:4317   */\n      0x00\n        /* \"#utility.yul\":4308:4314   */\n      dup3\n        /* \"#utility.yul\":4304:4318   */\n      add\n        /* \"#utility.yul\":4297:4334   */\n      mstore\n        /* \"#utility.yul\":4180:4341   */\n      pop\n      jump\t// out\n        /* \"#utility.yul\":4347:4713   */\n    tag_110:\n        /* \"#utility.yul\":4489:4492   */\n      0x00\n        /* \"#utility.yul\":4510:4577   */\n      tag_168\n        /* \"#utility.yul\":4574:4576   */\n      0x0b\n        /* \"#utility.yul\":4569:4572   */\n      dup4\n        /* \"#utility.yul\":4510:4577   */\n      tag_108\n      jump\t// in\n    tag_168:\n        /* \"#utility.yul\":4503:4577   */\n      swap2\n      pop\n        /* \"#utility.yul\":4586:4679   */\n      tag_169\n        /* \"#utility.yul\":4675:4678   */\n      dup3\n        /* \"#utility.yul\":4586:4679   */\n      tag_109\n      jump\t// in\n    tag_169:\n        /* \"#utility.yul\":4704:4706   */\n      0x20\n        /* \"#utility.yul\":4699:4702   */\n      dup3\n        /* \"#utility.yul\":4695:4707   */\n      add\n        /* \"#utility.yul\":4688:4707   */\n      swap1\n      pop\n        /* \"#utility.yul\":4347:4713   */\n      swap2\n      swap1\n      pop\n      jump\t// out\n        /* \"#utility.yul\":4719:5138   */\n    tag_58:\n        /* \"#utility.yul\":4885:4889   */\n      0x00\n        /* \"#utility.yul\":4923:4925   */\n      0x20\n        /* \"#utility.yul\":4912:4921   */\n      dup3\n        /* \"#utility.yul\":4908:4926   */\n      add\n        /* \"#utility.yul\":4900:4926   */\n      swap1\n      pop\n        /* \"#utility.yul\":4972:4981   */\n      dup2\n        /* \"#utility.yul\":4966:4970   */\n      dup2\n        /* \"#utility.yul\":4962:4982   */\n      sub\n        /* \"#utility.yul\":4958:4959   */\n      0x00\n        /* \"#utility.yul\":4947:4956   */\n      dup4\n        /* \"#utility.yul\":4943:4960   */\n      add\n        /* \"#utility.yul\":4936:4983   */\n      mstore\n        /* \"#utility.yul\":5000:5131   */\n      tag_171\n        /* \"#utility.yul\":5126:5130   */\n      dup2\n        /* \"#utility.yul\":5000:5131   */\n      tag_110\n      jump\t// in\n    tag_171:\n        /* \"#utility.yul\":4992:5131   */\n      swap1\n      pop\n        /* \"#utility.yul\":4719:5138   */\n      swap2\n      swap1\n      pop\n      jump\t// out\n        /* \"#utility.yul\":5144:5316   */\n    tag_111:\n        /* \"#utility.yul\":5284:5308   */\n      0x6469646e27742073656e6420656e6f7567682045544800000000000000000000\n        /* \"#utility.yul\":5280:5281   */\n      0x00\n        /* \"#utility.yul\":5272:5278   */\n      dup3\n        /* \"#utility.yul\":5268:5282   */\n      add\n        /* \"#utility.yul\":5261:5309   */\n      mstore\n        /* \"#utility.yul\":5144:5316   */\n      pop\n      jump\t// out\n        /* \"#utility.yul\":5322:5688   */\n    tag_112:\n        /* \"#utility.yul\":5464:5467   */\n      0x00\n        /* \"#utility.yul\":5485:5552   */\n      tag_174\n        /* \"#utility.yul\":5549:5551   */\n      0x16\n        /* \"#utility.yul\":5544:5547   */\n      dup4\n        /* \"#utility.yul\":5485:5552   */\n      tag_108\n      jump\t// in\n    tag_174:\n        /* \"#utility.yul\":5478:5552   */\n      swap2\n      pop\n        /* \"#utility.yul\":5561:5654   */\n      tag_175\n        /* \"#utility.yul\":5650:5653   */\n      dup3\n        /* \"#utility.yul\":5561:5654   */\n      tag_111\n      jump\t// in\n    tag_175:\n        /* \"#utility.yul\":5679:5681   */\n      0x20\n        /* \"#utility.yul\":5674:5677   */\n      dup3\n        /* \"#utility.yul\":5670:5682   */\n      add\n        /* \"#utility.yul\":5663:5682   */\n      swap1\n      pop\n        /* \"#utility.yul\":5322:5688   */\n      swap2\n      swap1\n      pop\n      jump\t// out\n        /* \"#utility.yul\":5694:6113   */\n    tag_64:\n        /* \"#utility.yul\":5860:5864   */\n      0x00\n        /* \"#utility.yul\":5898:5900   */\n      0x20\n        /* \"#utility.yul\":5887:5896   */\n      dup3\n        /* \"#utility.yul\":5883:5901   */\n      add\n        /* \"#utility.yul\":5875:5901   */\n      swap1\n      pop\n        /* \"#utility.yul\":5947:5956   */\n      dup2\n        /* \"#utility.yul\":5941:5945   */\n      dup2\n        /* \"#utility.yul\":5937:5957   */\n      sub\n        /* \"#utility.yul\":5933:5934   */\n      0x00\n        /* \"#utility.yul\":5922:5931   */\n      dup4\n        /* \"#utility.yul\":5918:5935   */\n      add\n        /* \"#utility.yul\":5911:5958   */\n      mstore\n        /* \"#utility.yul\":5975:6106   */\n      tag_177\n        /* \"#utility.yul\":6101:6105   */\n      dup2\n        /* \"#utility.yul\":5975:6106   */\n      tag_112\n      jump\t// in\n    tag_177:\n        /* \"#utility.yul\":5967:6106   */\n      swap1\n      pop\n        /* \"#utility.yul\":5694:6113   */\n      swap2\n      swap1\n      pop\n      jump\t// out\n        /* \"#utility.yul\":6119:6299   */\n    tag_113:\n        /* \"#utility.yul\":6167:6244   */\n      0x4e487b7100000000000000000000000000000000000000000000000000000000\n        /* \"#utility.yul\":6164:6165   */\n      0x00\n        /* \"#utility.yul\":6157:6245   */\n      mstore\n        /* \"#utility.yul\":6264:6268   */\n      0x12\n        /* \"#utility.yul\":6261:6262   */\n      0x04\n        /* \"#utility.yul\":6254:6269   */\n      mstore\n        /* \"#utility.yul\":6288:6292   */\n      0x24\n        /* \"#utility.yul\":6285:6286   */\n      0x00\n        /* \"#utility.yul\":6278:6293   */\n      revert\n        /* \"#utility.yul\":6305:6485   */\n    tag_114:\n        /* \"#utility.yul\":6353:6430   */\n      0x4e487b7100000000000000000000000000000000000000000000000000000000\n        /* \"#utility.yul\":6350:6351   */\n      0x00\n        /* \"#utility.yul\":6343:6431   */\n      mstore\n        /* \"#utility.yul\":6450:6454   */\n      0x11\n        /* \"#utility.yul\":6447:6448   */\n      0x04\n        /* \"#utility.yul\":6440:6455   */\n      mstore\n        /* \"#utility.yul\":6474:6478   */\n      0x24\n        /* \"#utility.yul\":6471:6472   */\n      0x00\n        /* \"#utility.yul\":6464:6479   */\n      revert\n        /* \"#utility.yul\":6491:6676   */\n    tag_68:\n        /* \"#utility.yul\":6531:6532   */\n      0x00\n        /* \"#utility.yul\":6548:6568   */\n      tag_181\n        /* \"#utility.yul\":6566:6567   */\n      dup3\n        /* \"#utility.yul\":6548:6568   */\n      tag_100\n      jump\t// in\n    tag_181:\n        /* \"#utility.yul\":6543:6568   */\n      swap2\n      pop\n        /* \"#utility.yul\":6582:6602   */\n      tag_182\n        /* \"#utility.yul\":6600:6601   */\n      dup4\n        /* \"#utility.yul\":6582:6602   */\n      tag_100\n      jump\t// in\n    tag_182:\n        /* \"#utility.yul\":6577:6602   */\n      swap3\n      pop\n        /* \"#utility.yul\":6621:6622   */\n      dup3\n        /* \"#utility.yul\":6611:6646   */\n      tag_183\n      jumpi\n        /* \"#utility.yul\":6626:6644   */\n      tag_184\n      tag_113\n      jump\t// in\n    tag_184:\n        /* \"#utility.yul\":6611:6646   */\n    tag_183:\n        /* \"#utility.yul\":6668:6669   */\n      dup3\n        /* \"#utility.yul\":6665:6666   */\n      dup3\n        /* \"#utility.yul\":6661:6670   */\n      div\n        /* \"#utility.yul\":6656:6670   */\n      swap1\n      pop\n        /* \"#utility.yul\":6491:6676   */\n      swap3\n      swap2\n      pop\n      pop\n      jump\t// out\n        /* \"#utility.yul\":6682:6873   */\n    tag_70:\n        /* \"#utility.yul\":6722:6725   */\n      0x00\n        /* \"#utility.yul\":6741:6761   */\n      tag_186\n        /* \"#utility.yul\":6759:6760   */\n      dup3\n        /* \"#utility.yul\":6741:6761   */\n      tag_100\n      jump\t// in\n    tag_186:\n        /* \"#utility.yul\":6736:6761   */\n      swap2\n      pop\n        /* \"#utility.yul\":6775:6795   */\n      tag_187\n        /* \"#utility.yul\":6793:6794   */\n      dup4\n        /* \"#utility.yul\":6775:6795   */\n      tag_100\n      jump\t// in\n    tag_187:\n        /* \"#utility.yul\":6770:6795   */\n      swap3\n      pop\n        /* \"#utility.yul\":6818:6819   */\n      dup3\n        /* \"#utility.yul\":6815:6816   */\n      dup3\n        /* \"#utility.yul\":6811:6820   */\n      add\n        /* \"#utility.yul\":6804:6820   */\n      swap1\n      pop\n        /* \"#utility.yul\":6839:6842   */\n      dup1\n        /* \"#utility.yul\":6836:6837   */\n      dup3\n        /* \"#utility.yul\":6833:6843   */\n      gt\n        /* \"#utility.yul\":6830:6866   */\n      iszero\n      tag_188\n      jumpi\n        /* \"#utility.yul\":6846:6864   */\n      tag_189\n      tag_114\n      jump\t// in\n    tag_189:\n        /* \"#utility.yul\":6830:6866   */\n    tag_188:\n        /* \"#utility.yul\":6682:6873   */\n      swap3\n      swap2\n      pop\n      pop\n      jump\t// out\n        /* \"#utility.yul\":6879:7289   */\n    tag_77:\n        /* \"#utility.yul\":6919:6926   */\n      0x00\n        /* \"#utility.yul\":6942:6962   */\n      tag_191\n        /* \"#utility.yul\":6960:6961   */\n      dup3\n        /* \"#utility.yul\":6942:6962   */\n      tag_100\n      jump\t// in\n    tag_191:\n        /* \"#utility.yul\":6937:6962   */\n      swap2\n      pop\n        /* \"#utility.yul\":6976:6996   */\n      tag_192\n        /* \"#utility.yul\":6994:6995   */\n      dup4\n        /* \"#utility.yul\":6976:6996   */\n      tag_100\n      jump\t// in\n    tag_192:\n        /* \"#utility.yul\":6971:6996   */\n      swap3\n      pop\n        /* \"#utility.yul\":7031:7032   */\n      dup3\n        /* \"#utility.yul\":7028:7029   */\n      dup3\n        /* \"#utility.yul\":7024:7033   */\n      mul\n        /* \"#utility.yul\":7053:7083   */\n      tag_193\n        /* \"#utility.yul\":7071:7082   */\n      dup2\n        /* \"#utility.yul\":7053:7083   */\n      tag_100\n      jump\t// in\n    tag_193:\n        /* \"#utility.yul\":7042:7083   */\n      swap2\n      pop\n        /* \"#utility.yul\":7232:7233   */\n      dup3\n        /* \"#utility.yul\":7223:7230   */\n      dup3\n        /* \"#utility.yul\":7219:7234   */\n      div\n        /* \"#utility.yul\":7216:7217   */\n      dup5\n        /* \"#utility.yul\":7213:7235   */\n      eq\n        /* \"#utility.yul\":7193:7194   */\n      dup4\n        /* \"#utility.yul\":7186:7195   */\n      iszero\n        /* \"#utility.yul\":7166:7249   */\n      or\n        /* \"#utility.yul\":7143:7282   */\n      tag_194\n      jumpi\n        /* \"#utility.yul\":7262:7280   */\n      tag_195\n      tag_114\n      jump\t// in\n    tag_195:\n        /* \"#utility.yul\":7143:7282   */\n    tag_194:\n        /* \"#utility.yul\":6927:7289   */\n      pop\n        /* \"#utility.yul\":6879:7289   */\n      swap3\n      swap2\n      pop\n      pop\n      jump\t// out\n        /* \"#utility.yul\":7295:7400   */\n    tag_115:\n        /* \"#utility.yul\":7331:7338   */\n      0x00\n        /* \"#utility.yul\":7371:7393   */\n      0xffffffffffffffffffff\n        /* \"#utility.yul\":7364:7369   */\n      dup3\n        /* \"#utility.yul\":7360:7394   */\n      and\n        /* \"#utility.yul\":7349:7394   */\n      swap1\n      pop\n        /* \"#utility.yul\":7295:7400   */\n      swap2\n      swap1\n      pop\n      jump\t// out\n        /* \"#utility.yul\":7406:7526   */\n    tag_116:\n        /* \"#utility.yul\":7478:7501   */\n      tag_198\n        /* \"#utility.yul\":7495:7500   */\n      dup2\n        /* \"#utility.yul\":7478:7501   */\n      tag_115\n      jump\t// in\n    tag_198:\n        /* \"#utility.yul\":7471:7476   */\n      dup2\n        /* \"#utility.yul\":7468:7502   */\n      eq\n        /* \"#utility.yul\":7458:7520   */\n      tag_199\n      jumpi\n        /* \"#utility.yul\":7516:7517   */\n      0x00\n        /* \"#utility.yul\":7513:7514   */\n      dup1\n        /* \"#utility.yul\":7506:7518   */\n      revert\n        /* \"#utility.yul\":7458:7520   */\n    tag_199:\n        /* \"#utility.yul\":7406:7526   */\n      pop\n      jump\t// out\n        /* \"#utility.yul\":7532:7673   */\n    tag_117:\n        /* \"#utility.yul\":7588:7593   */\n      0x00\n        /* \"#utility.yul\":7619:7625   */\n      dup2\n        /* \"#utility.yul\":7613:7626   */\n      mload\n        /* \"#utility.yul\":7604:7626   */\n      swap1\n      pop\n        /* \"#utility.yul\":7635:7667   */\n      tag_201\n        /* \"#utility.yul\":7661:7666   */\n      dup2\n        /* \"#utility.yul\":7635:7667   */\n      tag_116\n      jump\t// in\n    tag_201:\n        /* \"#utility.yul\":7532:7673   */\n      swap3\n      swap2\n      pop\n      pop\n      jump\t// out\n        /* \"#utility.yul\":7679:7755   */\n    tag_118:\n        /* \"#utility.yul\":7715:7722   */\n      0x00\n        /* \"#utility.yul\":7744:7749   */\n      dup2\n        /* \"#utility.yul\":7733:7749   */\n      swap1\n      pop\n        /* \"#utility.yul\":7679:7755   */\n      swap2\n      swap1\n      pop\n      jump\t// out\n        /* \"#utility.yul\":7761:7881   */\n    tag_119:\n        /* \"#utility.yul\":7833:7856   */\n      tag_204\n        /* \"#utility.yul\":7850:7855   */\n      dup2\n        /* \"#utility.yul\":7833:7856   */\n      tag_118\n      jump\t// in\n    tag_204:\n        /* \"#utility.yul\":7826:7831   */\n      dup2\n        /* \"#utility.yul\":7823:7857   */\n      eq\n        /* \"#utility.yul\":7813:7875   */\n      tag_205\n      jumpi\n        /* \"#utility.yul\":7871:7872   */\n      0x00\n        /* \"#utility.yul\":7868:7869   */\n      dup1\n        /* \"#utility.yul\":7861:7873   */\n      revert\n        /* \"#utility.yul\":7813:7875   */\n    tag_205:\n        /* \"#utility.yul\":7761:7881   */\n      pop\n      jump\t// out\n        /* \"#utility.yul\":7887:8028   */\n    tag_120:\n        /* \"#utility.yul\":7943:7948   */\n      0x00\n        /* \"#utility.yul\":7974:7980   */\n      dup2\n        /* \"#utility.yul\":7968:7981   */\n      mload\n        /* \"#utility.yul\":7959:7981   */\n      swap1\n      pop\n        /* \"#utility.yul\":7990:8022   */\n      tag_207\n        /* \"#utility.yul\":8016:8021   */\n      dup2\n        /* \"#utility.yul\":7990:8022   */\n      tag_119\n      jump\t// in\n    tag_207:\n        /* \"#utility.yul\":7887:8028   */\n      swap3\n      swap2\n      pop\n      pop\n      jump\t// out\n        /* \"#utility.yul\":8034:8177   */\n    tag_121:\n        /* \"#utility.yul\":8091:8096   */\n      0x00\n        /* \"#utility.yul\":8122:8128   */\n      dup2\n        /* \"#utility.yul\":8116:8129   */\n      mload\n        /* \"#utility.yul\":8107:8129   */\n      swap1\n      pop\n        /* \"#utility.yul\":8138:8171   */\n      tag_209\n        /* \"#utility.yul\":8165:8170   */\n      dup2\n        /* \"#utility.yul\":8138:8171   */\n      tag_103\n      jump\t// in\n    tag_209:\n        /* \"#utility.yul\":8034:8177   */\n      swap3\n      swap2\n      pop\n      pop\n      jump\t// out\n        /* \"#utility.yul\":8183:9154   */\n    tag_83:\n        /* \"#utility.yul\":8286:8292   */\n      0x00\n        /* \"#utility.yul\":8294:8300   */\n      dup1\n        /* \"#utility.yul\":8302:8308   */\n      0x00\n        /* \"#utility.yul\":8310:8316   */\n      dup1\n        /* \"#utility.yul\":8318:8324   */\n      0x00\n        /* \"#utility.yul\":8367:8370   */\n      0xa0\n        /* \"#utility.yul\":8355:8364   */\n      dup7\n        /* \"#utility.yul\":8346:8353   */\n      dup9\n        /* \"#utility.yul\":8342:8365   */\n      sub\n        /* \"#utility.yul\":8338:8371   */\n      slt\n        /* \"#utility.yul\":8335:8455   */\n      iszero\n      tag_211\n      jumpi\n        /* \"#utility.yul\":8374:8453   */\n      tag_212\n      tag_94\n      jump\t// in\n    tag_212:\n        /* \"#utility.yul\":8335:8455   */\n    tag_211:\n        /* \"#utility.yul\":8494:8495   */\n      0x00\n        /* \"#utility.yul\":8519:8582   */\n      tag_213\n        /* \"#utility.yul\":8574:8581   */\n      dup9\n        /* \"#utility.yul\":8565:8571   */\n      dup3\n        /* \"#utility.yul\":8554:8563   */\n      dup10\n        /* \"#utility.yul\":8550:8572   */\n      add\n        /* \"#utility.yul\":8519:8582   */\n      tag_117\n      jump\t// in\n    tag_213:\n        /* \"#utility.yul\":8509:8582   */\n      swap6\n      pop\n        /* \"#utility.yul\":8465:8592   */\n      pop\n        /* \"#utility.yul\":8631:8633   */\n      0x20\n        /* \"#utility.yul\":8657:8720   */\n      tag_214\n        /* \"#utility.yul\":8712:8719   */\n      dup9\n        /* \"#utility.yul\":8703:8709   */\n      dup3\n        /* \"#utility.yul\":8692:8701   */\n      dup10\n        /* \"#utility.yul\":8688:8710   */\n      add\n        /* \"#utility.yul\":8657:8720   */\n      tag_120\n      jump\t// in\n    tag_214:\n        /* \"#utility.yul\":8647:8720   */\n      swap5\n      pop\n        /* \"#utility.yul\":8602:8730   */\n      pop\n        /* \"#utility.yul\":8769:8771   */\n      0x40\n        /* \"#utility.yul\":8795:8859   */\n      tag_215\n        /* \"#utility.yul\":8851:8858   */\n      dup9\n        /* \"#utility.yul\":8842:8848   */\n      dup3\n        /* \"#utility.yul\":8831:8840   */\n      dup10\n        /* \"#utility.yul\":8827:8849   */\n      add\n        /* \"#utility.yul\":8795:8859   */\n      tag_121\n      jump\t// in\n    tag_215:\n        /* \"#utility.yul\":8785:8859   */\n      swap4\n      pop\n        /* \"#utility.yul\":8740:8869   */\n      pop\n        /* \"#utility.yul\":8908:8910   */\n      0x60\n        /* \"#utility.yul\":8934:8998   */\n      tag_216\n        /* \"#utility.yul\":8990:8997   */\n      dup9\n        /* \"#utility.yul\":8981:8987   */\n      dup3\n        /* \"#utility.yul\":8970:8979   */\n      dup10\n        /* \"#utility.yul\":8966:8988   */\n      add\n        /* \"#utility.yul\":8934:8998   */\n      tag_121\n      jump\t// in\n    tag_216:\n        /* \"#utility.yul\":8924:8998   */\n      swap3\n      pop\n        /* \"#utility.yul\":8879:9008   */\n      pop\n        /* \"#utility.yul\":9047:9050   */\n      0x80\n        /* \"#utility.yul\":9074:9137   */\n      tag_217\n        /* \"#utility.yul\":9129:9136   */\n      dup9\n        /* \"#utility.yul\":9120:9126   */\n      dup3\n        /* \"#utility.yul\":9109:9118   */\n      dup10\n        /* \"#utility.yul\":9105:9127   */\n      add\n        /* \"#utility.yul\":9074:9137   */\n      tag_117\n      jump\t// in\n    tag_217:\n        /* \"#utility.yul\":9064:9137   */\n      swap2\n      pop\n        /* \"#utility.yul\":9018:9147   */\n      pop\n        /* \"#utility.yul\":8183:9154   */\n      swap3\n      swap6\n      pop\n      swap3\n      swap6\n      swap1\n      swap4\n      pop\n      jump\t// out\n        /* \"#utility.yul\":9160:9716   */\n    tag_85:\n        /* \"#utility.yul\":9199:9206   */\n      0x00\n        /* \"#utility.yul\":9222:9241   */\n      tag_219\n        /* \"#utility.yul\":9239:9240   */\n      dup3\n        /* \"#utility.yul\":9222:9241   */\n      tag_118\n      jump\t// in\n    tag_219:\n        /* \"#utility.yul\":9217:9241   */\n      swap2\n      pop\n        /* \"#utility.yul\":9255:9274   */\n      tag_220\n        /* \"#utility.yul\":9272:9273   */\n      dup4\n        /* \"#utility.yul\":9255:9274   */\n      tag_118\n      jump\t// in\n    tag_220:\n        /* \"#utility.yul\":9250:9274   */\n      swap3\n      pop\n        /* \"#utility.yul\":9309:9310   */\n      dup3\n        /* \"#utility.yul\":9306:9307   */\n      dup3\n        /* \"#utility.yul\":9302:9311   */\n      mul\n        /* \"#utility.yul\":9331:9360   */\n      tag_221\n        /* \"#utility.yul\":9348:9359   */\n      dup2\n        /* \"#utility.yul\":9331:9360   */\n      tag_118\n      jump\t// in\n    tag_221:\n        /* \"#utility.yul\":9320:9360   */\n      swap2\n      pop\n        /* \"#utility.yul\":9418:9484   */\n      0x8000000000000000000000000000000000000000000000000000000000000000\n        /* \"#utility.yul\":9415:9416   */\n      dup5\n        /* \"#utility.yul\":9412:9485   */\n      eq\n        /* \"#utility.yul\":9408:9409   */\n      0x00\n        /* \"#utility.yul\":9405:9406   */\n      dup5\n        /* \"#utility.yul\":9401:9410   */\n      slt\n        /* \"#utility.yul\":9397:9486   */\n      and\n        /* \"#utility.yul\":9394:9509   */\n      iszero\n      tag_222\n      jumpi\n        /* \"#utility.yul\":9489:9507   */\n      tag_223\n      tag_114\n      jump\t// in\n    tag_223:\n        /* \"#utility.yul\":9394:9509   */\n    tag_222:\n        /* \"#utility.yul\":9659:9660   */\n      dup3\n        /* \"#utility.yul\":9650:9657   */\n      dup3\n        /* \"#utility.yul\":9645:9661   */\n      sdiv\n        /* \"#utility.yul\":9642:9643   */\n      dup5\n        /* \"#utility.yul\":9639:9662   */\n      eq\n        /* \"#utility.yul\":9619:9620   */\n      dup4\n        /* \"#utility.yul\":9612:9621   */\n      iszero\n        /* \"#utility.yul\":9592:9676   */\n      or\n        /* \"#utility.yul\":9569:9709   */\n      tag_224\n      jumpi\n        /* \"#utility.yul\":9689:9707   */\n      tag_225\n      tag_114\n      jump\t// in\n    tag_225:\n        /* \"#utility.yul\":9569:9709   */\n    tag_224:\n        /* \"#utility.yul\":9207:9716   */\n      pop\n        /* \"#utility.yul\":9160:9716   */\n      swap3\n      swap2\n      pop\n      pop\n      jump\t// out\n\n    auxdata: 0xa2646970667358221220f2ecbc93cfdc2e922007bca1e716db8ca50cb5b7e78ac5902d0925da1adc27cd64736f6c63430008180033\n}\n",
				"bytecode": {
					"linkReferences": {},
					"object": "60a060405234801561000f575f80fd5b503373ffffffffffffffffffffffffffffffffffffffff1660808173ffffffffffffffffffffffffffffffffffffffff1681525050608051610c1e6100635f395f818161015b01526104ea0152610c1e5ff3fe608060405260043610610054575f3560e01c80633c7e7d28146100585780633ccfd60b146100945780636b69a592146100aa578063b60d4288146100d4578063dba6335f146100de578063dc0d3dff14610108575b5f80fd5b348015610063575f80fd5b5061007e60048036038101906100799190610723565b610144565b60405161008b9190610766565b60405180910390f35b34801561009f575f80fd5b506100a8610159565b005b3480156100b5575f80fd5b506100be610384565b6040516100cb9190610766565b60405180910390f35b6100dc610390565b005b3480156100e9575f80fd5b506100f26104e8565b6040516100ff919061078e565b60405180910390f35b348015610113575f80fd5b5061012e600480360381019061012991906107d1565b61050c565b60405161013b919061078e565b60405180910390f35b6001602052805f5260405f205f915090505481565b7f000000000000000000000000000000000000000000000000000000000000000073ffffffffffffffffffffffffffffffffffffffff163373ffffffffffffffffffffffffffffffffffffffff16146101de576040517f251c9d6300000000000000000000000000000000000000000000000000000000815260040160405180910390fd5b5f5b5f8054905081101561027a575f808281548110610200576101ff6107fc565b5b905f5260205f20015f9054906101000a900473ffffffffffffffffffffffffffffffffffffffff1690505f60015f8373ffffffffffffffffffffffffffffffffffffffff1673ffffffffffffffffffffffffffffffffffffffff1681526020019081526020015f20819055505080806001019150506101e0565b505f67ffffffffffffffff81111561029557610294610829565b5b6040519080825280602002602001820160405280156102c35781602001602082028036833780820191505090505b505f90805190602001906102d8929190610623565b505f3373ffffffffffffffffffffffffffffffffffffffff16476040516102fe90610883565b5f6040518083038185875af1925050503d805f8114610338576040519150601f19603f3d011682016040523d82523d5f602084013e61033d565b606091505b5050905080610381576040517f08c379a0000000000000000000000000000000000000000000000000000000008152600401610378906108f1565b60405180910390fd5b50565b674563918244f4000081565b674563918244f400006103a234610546565b10156103e3576040517f08c379a00000000000000000000000000000000000000000000000000000000081526004016103da90610959565b60405180910390fd5b5f33908060018154018082558091505060019003905f5260205f20015f9091909190916101000a81548173ffffffffffffffffffffffffffffffffffffffff021916908373ffffffffffffffffffffffffffffffffffffffff160217905550662386f26fc1000061045334610546565b61045d91906109d1565b60015f3373ffffffffffffffffffffffffffffffffffffffff1673ffffffffffffffffffffffffffffffffffffffff1681526020019081526020015f20546104a59190610a01565b60015f3373ffffffffffffffffffffffffffffffffffffffff1673ffffffffffffffffffffffffffffffffffffffff1681526020019081526020015f2081905550565b7f000000000000000000000000000000000000000000000000000000000000000081565b5f818154811061051a575f80fd5b905f5260205f20015f915054906101000a900473ffffffffffffffffffffffffffffffffffffffff1681565b5f8061055061057e565b90505f670de0b6b3a764000084836105689190610a34565b61057291906109d1565b90508092505050919050565b5f8073feeff7c3fb57d18c5c6cdd71e45d2d0b4f9377bf90505f8173ffffffffffffffffffffffffffffffffffffffff1663feaf968c6040518163ffffffff1660e01b815260040160a060405180830381865afa1580156105e1573d5f803e3d5ffd5b505050506040513d601f19601f820116820180604052508101906106059190610afb565b5050509150506402540be4008161061c9190610b72565b9250505090565b828054828255905f5260205f20908101928215610699579160200282015b82811115610698578251825f6101000a81548173ffffffffffffffffffffffffffffffffffffffff021916908373ffffffffffffffffffffffffffffffffffffffff16021790555091602001919060010190610641565b5b5090506106a691906106aa565b5090565b5b808211156106c1575f815f9055506001016106ab565b5090565b5f80fd5b5f73ffffffffffffffffffffffffffffffffffffffff82169050919050565b5f6106f2826106c9565b9050919050565b610702816106e8565b811461070c575f80fd5b50565b5f8135905061071d816106f9565b92915050565b5f60208284031215610738576107376106c5565b5b5f6107458482850161070f565b91505092915050565b5f819050919050565b6107608161074e565b82525050565b5f6020820190506107795f830184610757565b92915050565b610788816106e8565b82525050565b5f6020820190506107a15f83018461077f565b92915050565b6107b08161074e565b81146107ba575f80fd5b50565b5f813590506107cb816107a7565b92915050565b5f602082840312156107e6576107e56106c5565b5b5f6107f3848285016107bd565b91505092915050565b7f4e487b71000000000000000000000000000000000000000000000000000000005f52603260045260245ffd5b7f4e487b71000000000000000000000000000000000000000000000000000000005f52604160045260245ffd5b5f81905092915050565b50565b5f61086e5f83610856565b915061087982610860565b5f82019050919050565b5f61088d82610863565b9150819050919050565b5f82825260208201905092915050565b7f43616c6c204661696c65640000000000000000000000000000000000000000005f82015250565b5f6108db600b83610897565b91506108e6826108a7565b602082019050919050565b5f6020820190508181035f830152610908816108cf565b9050919050565b7f6469646e27742073656e6420656e6f75676820455448000000000000000000005f82015250565b5f610943601683610897565b915061094e8261090f565b602082019050919050565b5f6020820190508181035f83015261097081610937565b9050919050565b7f4e487b71000000000000000000000000000000000000000000000000000000005f52601260045260245ffd5b7f4e487b71000000000000000000000000000000000000000000000000000000005f52601160045260245ffd5b5f6109db8261074e565b91506109e68361074e565b9250826109f6576109f5610977565b5b828204905092915050565b5f610a0b8261074e565b9150610a168361074e565b9250828201905080821115610a2e57610a2d6109a4565b5b92915050565b5f610a3e8261074e565b9150610a498361074e565b9250828202610a578161074e565b91508282048414831517610a6e57610a6d6109a4565b5b5092915050565b5f69ffffffffffffffffffff82169050919050565b610a9381610a75565b8114610a9d575f80fd5b50565b5f81519050610aae81610a8a565b92915050565b5f819050919050565b610ac681610ab4565b8114610ad0575f80fd5b50565b5f81519050610ae181610abd565b92915050565b5f81519050610af5816107a7565b92915050565b5f805f805f60a08688031215610b1457610b136106c5565b5b5f610b2188828901610aa0565b9550506020610b3288828901610ad3565b9450506040610b4388828901610ae7565b9350506060610b5488828901610ae7565b9250506080610b6588828901610aa0565b9150509295509295909350565b5f610b7c82610ab4565b9150610b8783610ab4565b9250828202610b9581610ab4565b91507f800000000000000000000000000000000000000000000000000000000000000084145f84121615610bcc57610bcb6109a4565b5b8282058414831517610be157610be06109a4565b5b509291505056fea2646970667358221220f2ecbc93cfdc2e922007bca1e716db8ca50cb5b7e78ac5902d0925da1adc27cd64736f6c63430008180033",
					"opcodes": "PUSH1 0xA0 PUSH1 0x40 MSTORE CALLVALUE DUP1 ISZERO PUSH2 0xF JUMPI PUSH0 DUP1 REVERT JUMPDEST POP CALLER PUSH20 0xFFFFFFFFFFFFFFFFFFFFFFFFFFFFFFFFFFFFFFFF AND PUSH1 0x80 DUP2 PUSH20 0xFFFFFFFFFFFFFFFFFFFFFFFFFFFFFFFFFFFFFFFF AND DUP2 MSTORE POP POP PUSH1 0x80 MLOAD PUSH2 0xC1E PUSH2 0x63 PUSH0 CODECOPY PUSH0 DUP2 DUP2 PUSH2 0x15B ADD MSTORE PUSH2 0x4EA ADD MSTORE PUSH2 0xC1E PUSH0 RETURN INVALID PUSH1 0x80 PUSH1 0x40 MSTORE PUSH1 0x4 CALLDATASIZE LT PUSH2 0x54 JUMPI PUSH0 CALLDATALOAD PUSH1 0xE0 SHR DUP1 PUSH4 0x3C7E7D28 EQ PUSH2 0x58 JUMPI DUP1 PUSH4 0x3CCFD60B EQ PUSH2 0x94 JUMPI DUP1 PUSH4 0x6B69A592 EQ PUSH2 0xAA JUMPI DUP1 PUSH4 0xB60D4288 EQ PUSH2 0xD4 JUMPI DUP1 PUSH4 0xDBA6335F EQ PUSH2 0xDE JUMPI DUP1 PUSH4 0xDC0D3DFF EQ PUSH2 0x108 JUMPI JUMPDEST PUSH0 DUP1 REVERT JUMPDEST CALLVALUE DUP1 ISZERO PUSH2 0x63 JUMPI PUSH0 DUP1 REVERT JUMPDEST POP PUSH2 0x7E PUSH1 0x4 DUP1 CALLDATASIZE SUB DUP2 ADD SWAP1 PUSH2 0x79 SWAP2 SWAP1 PUSH2 0x723 JUMP JUMPDEST PUSH2 0x144 JUMP JUMPDEST PUSH1 0x40 MLOAD PUSH2 0x8B SWAP2 SWAP1 PUSH2 0x766 JUMP JUMPDEST PUSH1 0x40 MLOAD DUP1 SWAP2 SUB SWAP1 RETURN JUMPDEST CALLVALUE DUP1 ISZERO PUSH2 0x9F JUMPI PUSH0 DUP1 REVERT JUMPDEST POP PUSH2 0xA8 PUSH2 0x159 JUMP JUMPDEST STOP JUMPDEST CALLVALUE DUP1 ISZERO PUSH2 0xB5 JUMPI PUSH0 DUP1 REVERT JUMPDEST POP PUSH2 0xBE PUSH2 0x384 JUMP JUMPDEST PUSH1 0x40 MLOAD PUSH2 0xCB SWAP2 SWAP1 PUSH2 0x766 JUMP JUMPDEST PUSH1 0x40 MLOAD DUP1 SWAP2 SUB SWAP1 RETURN JUMPDEST PUSH2 0xDC PUSH2 0x390 JUMP JUMPDEST STOP JUMPDEST CALLVALUE DUP1 ISZERO PUSH2 0xE9 JUMPI PUSH0 DUP1 REVERT JUMPDEST POP PUSH2 0xF2 PUSH2 0x4E8 JUMP JUMPDEST PUSH1 0x40 MLOAD PUSH2 0xFF SWAP2 SWAP1 PUSH2 0x78E JUMP JUMPDEST PUSH1 0x40 MLOAD DUP1 SWAP2 SUB SWAP1 RETURN JUMPDEST CALLVALUE DUP1 ISZERO PUSH2 0x113 JUMPI PUSH0 DUP1 REVERT JUMPDEST POP PUSH2 0x12E PUSH1 0x4 DUP1 CALLDATASIZE SUB DUP2 ADD SWAP1 PUSH2 0x129 SWAP2 SWAP1 PUSH2 0x7D1 JUMP JUMPDEST PUSH2 0x50C JUMP JUMPDEST PUSH1 0x40 MLOAD PUSH2 0x13B SWAP2 SWAP1 PUSH2 0x78E JUMP JUMPDEST PUSH1 0x40 MLOAD DUP1 SWAP2 SUB SWAP1 RETURN JUMPDEST PUSH1 0x1 PUSH1 0x20 MSTORE DUP1 PUSH0 MSTORE PUSH1 0x40 PUSH0 KECCAK256 PUSH0 SWAP2 POP SWAP1 POP SLOAD DUP2 JUMP JUMPDEST PUSH32 0x0 PUSH20 0xFFFFFFFFFFFFFFFFFFFFFFFFFFFFFFFFFFFFFFFF AND CALLER PUSH20 0xFFFFFFFFFFFFFFFFFFFFFFFFFFFFFFFFFFFFFFFF AND EQ PUSH2 0x1DE JUMPI PUSH1 0x40 MLOAD PUSH32 0x251C9D6300000000000000000000000000000000000000000000000000000000 DUP2 MSTORE PUSH1 0x4 ADD PUSH1 0x40 MLOAD DUP1 SWAP2 SUB SWAP1 REVERT JUMPDEST PUSH0 JUMPDEST PUSH0 DUP1 SLOAD SWAP1 POP DUP2 LT ISZERO PUSH2 0x27A JUMPI PUSH0 DUP1 DUP3 DUP2 SLOAD DUP2 LT PUSH2 0x200 JUMPI PUSH2 0x1FF PUSH2 0x7FC JUMP JUMPDEST JUMPDEST SWAP1 PUSH0 MSTORE PUSH1 0x20 PUSH0 KECCAK256 ADD PUSH0 SWAP1 SLOAD SWAP1 PUSH2 0x100 EXP SWAP1 DIV PUSH20 0xFFFFFFFFFFFFFFFFFFFFFFFFFFFFFFFFFFFFFFFF AND SWAP1 POP PUSH0 PUSH1 0x1 PUSH0 DUP4 PUSH20 0xFFFFFFFFFFFFFFFFFFFFFFFFFFFFFFFFFFFFFFFF AND PUSH20 0xFFFFFFFFFFFFFFFFFFFFFFFFFFFFFFFFFFFFFFFF AND DUP2 MSTORE PUSH1 0x20 ADD SWAP1 DUP2 MSTORE PUSH1 0x20 ADD PUSH0 KECCAK256 DUP2 SWAP1 SSTORE POP POP DUP1 DUP1 PUSH1 0x1 ADD SWAP2 POP POP PUSH2 0x1E0 JUMP JUMPDEST POP PUSH0 PUSH8 0xFFFFFFFFFFFFFFFF DUP2 GT ISZERO PUSH2 0x295 JUMPI PUSH2 0x294 PUSH2 0x829 JUMP JUMPDEST JUMPDEST PUSH1 0x40 MLOAD SWAP1 DUP1 DUP3 MSTORE DUP1 PUSH1 0x20 MUL PUSH1 0x20 ADD DUP3 ADD PUSH1 0x40 MSTORE DUP1 ISZERO PUSH2 0x2C3 JUMPI DUP2 PUSH1 0x20 ADD PUSH1 0x20 DUP3 MUL DUP1 CALLDATASIZE DUP4 CALLDATACOPY DUP1 DUP3 ADD SWAP2 POP POP SWAP1 POP JUMPDEST POP PUSH0 SWAP1 DUP1 MLOAD SWAP1 PUSH1 0x20 ADD SWAP1 PUSH2 0x2D8 SWAP3 SWAP2 SWAP1 PUSH2 0x623 JUMP JUMPDEST POP PUSH0 CALLER PUSH20 0xFFFFFFFFFFFFFFFFFFFFFFFFFFFFFFFFFFFFFFFF AND SELFBALANCE PUSH1 0x40 MLOAD PUSH2 0x2FE SWAP1 PUSH2 0x883 JUMP JUMPDEST PUSH0 PUSH1 0x40 MLOAD DUP1 DUP4 SUB DUP2 DUP6 DUP8 GAS CALL SWAP3 POP POP POP RETURNDATASIZE DUP1 PUSH0 DUP2 EQ PUSH2 0x338 JUMPI PUSH1 0x40 MLOAD SWAP2 POP PUSH1 0x1F NOT PUSH1 0x3F RETURNDATASIZE ADD AND DUP3 ADD PUSH1 0x40 MSTORE RETURNDATASIZE DUP3 MSTORE RETURNDATASIZE PUSH0 PUSH1 0x20 DUP5 ADD RETURNDATACOPY PUSH2 0x33D JUMP JUMPDEST PUSH1 0x60 SWAP2 POP JUMPDEST POP POP SWAP1 POP DUP1 PUSH2 0x381 JUMPI PUSH1 0x40 MLOAD PUSH32 0x8C379A000000000000000000000000000000000000000000000000000000000 DUP2 MSTORE PUSH1 0x4 ADD PUSH2 0x378 SWAP1 PUSH2 0x8F1 JUMP JUMPDEST PUSH1 0x40 MLOAD DUP1 SWAP2 SUB SWAP1 REVERT JUMPDEST POP JUMP JUMPDEST PUSH8 0x4563918244F40000 DUP2 JUMP JUMPDEST PUSH8 0x4563918244F40000 PUSH2 0x3A2 CALLVALUE PUSH2 0x546 JUMP JUMPDEST LT ISZERO PUSH2 0x3E3 JUMPI PUSH1 0x40 MLOAD PUSH32 0x8C379A000000000000000000000000000000000000000000000000000000000 DUP2 MSTORE PUSH1 0x4 ADD PUSH2 0x3DA SWAP1 PUSH2 0x959 JUMP JUMPDEST PUSH1 0x40 MLOAD DUP1 SWAP2 SUB SWAP1 REVERT JUMPDEST PUSH0 CALLER SWAP1 DUP1 PUSH1 0x1 DUP2 SLOAD ADD DUP1 DUP3 SSTORE DUP1 SWAP2 POP POP PUSH1 0x1 SWAP1 SUB SWAP1 PUSH0 MSTORE PUSH1 0x20 PUSH0 KECCAK256 ADD PUSH0 SWAP1 SWAP2 SWAP1 SWAP2 SWAP1 SWAP2 PUSH2 0x100 EXP DUP2 SLOAD DUP2 PUSH20 0xFFFFFFFFFFFFFFFFFFFFFFFFFFFFFFFFFFFFFFFF MUL NOT AND SWAP1 DUP4 PUSH20 0xFFFFFFFFFFFFFFFFFFFFFFFFFFFFFFFFFFFFFFFF AND MUL OR SWAP1 SSTORE POP PUSH7 0x2386F26FC10000 PUSH2 0x453 CALLVALUE PUSH2 0x546 JUMP JUMPDEST PUSH2 0x45D SWAP2 SWAP1 PUSH2 0x9D1 JUMP JUMPDEST PUSH1 0x1 PUSH0 CALLER PUSH20 0xFFFFFFFFFFFFFFFFFFFFFFFFFFFFFFFFFFFFFFFF AND PUSH20 0xFFFFFFFFFFFFFFFFFFFFFFFFFFFFFFFFFFFFFFFF AND DUP2 MSTORE PUSH1 0x20 ADD SWAP1 DUP2 MSTORE PUSH1 0x20 ADD PUSH0 KECCAK256 SLOAD PUSH2 0x4A5 SWAP2 SWAP1 PUSH2 0xA01 JUMP JUMPDEST PUSH1 0x1 PUSH0 CALLER PUSH20 0xFFFFFFFFFFFFFFFFFFFFFFFFFFFFFFFFFFFFFFFF AND PUSH20 0xFFFFFFFFFFFFFFFFFFFFFFFFFFFFFFFFFFFFFFFF AND DUP2 MSTORE PUSH1 0x20 ADD SWAP1 DUP2 MSTORE PUSH1 0x20 ADD PUSH0 KECCAK256 DUP2 SWAP1 SSTORE POP JUMP JUMPDEST PUSH32 0x0 DUP2 JUMP JUMPDEST PUSH0 DUP2 DUP2 SLOAD DUP2 LT PUSH2 0x51A JUMPI PUSH0 DUP1 REVERT JUMPDEST SWAP1 PUSH0 MSTORE PUSH1 0x20 PUSH0 KECCAK256 ADD PUSH0 SWAP2 POP SLOAD SWAP1 PUSH2 0x100 EXP SWAP1 DIV PUSH20 0xFFFFFFFFFFFFFFFFFFFFFFFFFFFFFFFFFFFFFFFF AND DUP2 JUMP JUMPDEST PUSH0 DUP1 PUSH2 0x550 PUSH2 0x57E JUMP JUMPDEST SWAP1 POP PUSH0 PUSH8 0xDE0B6B3A7640000 DUP5 DUP4 PUSH2 0x568 SWAP2 SWAP1 PUSH2 0xA34 JUMP JUMPDEST PUSH2 0x572 SWAP2 SWAP1 PUSH2 0x9D1 JUMP JUMPDEST SWAP1 POP DUP1 SWAP3 POP POP POP SWAP2 SWAP1 POP JUMP JUMPDEST PUSH0 DUP1 PUSH20 0xFEEFF7C3FB57D18C5C6CDD71E45D2D0B4F9377BF SWAP1 POP PUSH0 DUP2 PUSH20 0xFFFFFFFFFFFFFFFFFFFFFFFFFFFFFFFFFFFFFFFF AND PUSH4 0xFEAF968C PUSH1 0x40 MLOAD DUP2 PUSH4 0xFFFFFFFF AND PUSH1 0xE0 SHL DUP2 MSTORE PUSH1 0x4 ADD PUSH1 0xA0 PUSH1 0x40 MLOAD DUP1 DUP4 SUB DUP2 DUP7 GAS STATICCALL ISZERO DUP1 ISZERO PUSH2 0x5E1 JUMPI RETURNDATASIZE PUSH0 DUP1 RETURNDATACOPY RETURNDATASIZE PUSH0 REVERT JUMPDEST POP POP POP POP PUSH1 0x40 MLOAD RETURNDATASIZE PUSH1 0x1F NOT PUSH1 0x1F DUP3 ADD AND DUP3 ADD DUP1 PUSH1 0x40 MSTORE POP DUP2 ADD SWAP1 PUSH2 0x605 SWAP2 SWAP1 PUSH2 0xAFB JUMP JUMPDEST POP POP POP SWAP2 POP POP PUSH5 0x2540BE400 DUP2 PUSH2 0x61C SWAP2 SWAP1 PUSH2 0xB72 JUMP JUMPDEST SWAP3 POP POP POP SWAP1 JUMP JUMPDEST DUP3 DUP1 SLOAD DUP3 DUP3 SSTORE SWAP1 PUSH0 MSTORE PUSH1 0x20 PUSH0 KECCAK256 SWAP1 DUP2 ADD SWAP3 DUP3 ISZERO PUSH2 0x699 JUMPI SWAP2 PUSH1 0x20 MUL DUP3 ADD JUMPDEST DUP3 DUP2 GT ISZERO PUSH2 0x698 JUMPI DUP3 MLOAD DUP3 PUSH0 PUSH2 0x100 EXP DUP2 SLOAD DUP2 PUSH20 0xFFFFFFFFFFFFFFFFFFFFFFFFFFFFFFFFFFFFFFFF MUL NOT AND SWAP1 DUP4 PUSH20 0xFFFFFFFFFFFFFFFFFFFFFFFFFFFFFFFFFFFFFFFF AND MUL OR SWAP1 SSTORE POP SWAP2 PUSH1 0x20 ADD SWAP2 SWAP1 PUSH1 0x1 ADD SWAP1 PUSH2 0x641 JUMP JUMPDEST JUMPDEST POP SWAP1 POP PUSH2 0x6A6 SWAP2 SWAP1 PUSH2 0x6AA JUMP JUMPDEST POP SWAP1 JUMP JUMPDEST JUMPDEST DUP1 DUP3 GT ISZERO PUSH2 0x6C1 JUMPI PUSH0 DUP2 PUSH0 SWAP1 SSTORE POP PUSH1 0x1 ADD PUSH2 0x6AB JUMP JUMPDEST POP SWAP1 JUMP JUMPDEST PUSH0 DUP1 REVERT JUMPDEST PUSH0 PUSH20 0xFFFFFFFFFFFFFFFFFFFFFFFFFFFFFFFFFFFFFFFF DUP3 AND SWAP1 POP SWAP2 SWAP1 POP JUMP JUMPDEST PUSH0 PUSH2 0x6F2 DUP3 PUSH2 0x6C9 JUMP JUMPDEST SWAP1 POP SWAP2 SWAP1 POP JUMP JUMPDEST PUSH2 0x702 DUP2 PUSH2 0x6E8 JUMP JUMPDEST DUP2 EQ PUSH2 0x70C JUMPI PUSH0 DUP1 REVERT JUMPDEST POP JUMP JUMPDEST PUSH0 DUP2 CALLDATALOAD SWAP1 POP PUSH2 0x71D DUP2 PUSH2 0x6F9 JUMP JUMPDEST SWAP3 SWAP2 POP POP JUMP JUMPDEST PUSH0 PUSH1 0x20 DUP3 DUP5 SUB SLT ISZERO PUSH2 0x738 JUMPI PUSH2 0x737 PUSH2 0x6C5 JUMP JUMPDEST JUMPDEST PUSH0 PUSH2 0x745 DUP5 DUP3 DUP6 ADD PUSH2 0x70F JUMP JUMPDEST SWAP2 POP POP SWAP3 SWAP2 POP POP JUMP JUMPDEST PUSH0 DUP2 SWAP1 POP SWAP2 SWAP1 POP JUMP JUMPDEST PUSH2 0x760 DUP2 PUSH2 0x74E JUMP JUMPDEST DUP3 MSTORE POP POP JUMP JUMPDEST PUSH0 PUSH1 0x20 DUP3 ADD SWAP1 POP PUSH2 0x779 PUSH0 DUP4 ADD DUP5 PUSH2 0x757 JUMP JUMPDEST SWAP3 SWAP2 POP POP JUMP JUMPDEST PUSH2 0x788 DUP2 PUSH2 0x6E8 JUMP JUMPDEST DUP3 MSTORE POP POP JUMP JUMPDEST PUSH0 PUSH1 0x20 DUP3 ADD SWAP1 POP PUSH2 0x7A1 PUSH0 DUP4 ADD DUP5 PUSH2 0x77F JUMP JUMPDEST SWAP3 SWAP2 POP POP JUMP JUMPDEST PUSH2 0x7B0 DUP2 PUSH2 0x74E JUMP JUMPDEST DUP2 EQ PUSH2 0x7BA JUMPI PUSH0 DUP1 REVERT JUMPDEST POP JUMP JUMPDEST PUSH0 DUP2 CALLDATALOAD SWAP1 POP PUSH2 0x7CB DUP2 PUSH2 0x7A7 JUMP JUMPDEST SWAP3 SWAP2 POP POP JUMP JUMPDEST PUSH0 PUSH1 0x20 DUP3 DUP5 SUB SLT ISZERO PUSH2 0x7E6 JUMPI PUSH2 0x7E5 PUSH2 0x6C5 JUMP JUMPDEST JUMPDEST PUSH0 PUSH2 0x7F3 DUP5 DUP3 DUP6 ADD PUSH2 0x7BD JUMP JUMPDEST SWAP2 POP POP SWAP3 SWAP2 POP POP JUMP JUMPDEST PUSH32 0x4E487B7100000000000000000000000000000000000000000000000000000000 PUSH0 MSTORE PUSH1 0x32 PUSH1 0x4 MSTORE PUSH1 0x24 PUSH0 REVERT JUMPDEST PUSH32 0x4E487B7100000000000000000000000000000000000000000000000000000000 PUSH0 MSTORE PUSH1 0x41 PUSH1 0x4 MSTORE PUSH1 0x24 PUSH0 REVERT JUMPDEST PUSH0 DUP2 SWAP1 POP SWAP3 SWAP2 POP POP JUMP JUMPDEST POP JUMP JUMPDEST PUSH0 PUSH2 0x86E PUSH0 DUP4 PUSH2 0x856 JUMP JUMPDEST SWAP2 POP PUSH2 0x879 DUP3 PUSH2 0x860 JUMP JUMPDEST PUSH0 DUP3 ADD SWAP1 POP SWAP2 SWAP1 POP JUMP JUMPDEST PUSH0 PUSH2 0x88D DUP3 PUSH2 0x863 JUMP JUMPDEST SWAP2 POP DUP2 SWAP1 POP SWAP2 SWAP1 POP JUMP JUMPDEST PUSH0 DUP3 DUP3 MSTORE PUSH1 0x20 DUP3 ADD SWAP1 POP SWAP3 SWAP2 POP POP JUMP JUMPDEST PUSH32 0x43616C6C204661696C6564000000000000000000000000000000000000000000 PUSH0 DUP3 ADD MSTORE POP JUMP JUMPDEST PUSH0 PUSH2 0x8DB PUSH1 0xB DUP4 PUSH2 0x897 JUMP JUMPDEST SWAP2 POP PUSH2 0x8E6 DUP3 PUSH2 0x8A7 JUMP JUMPDEST PUSH1 0x20 DUP3 ADD SWAP1 POP SWAP2 SWAP1 POP JUMP JUMPDEST PUSH0 PUSH1 0x20 DUP3 ADD SWAP1 POP DUP2 DUP2 SUB PUSH0 DUP4 ADD MSTORE PUSH2 0x908 DUP2 PUSH2 0x8CF JUMP JUMPDEST SWAP1 POP SWAP2 SWAP1 POP JUMP JUMPDEST PUSH32 0x6469646E27742073656E6420656E6F7567682045544800000000000000000000 PUSH0 DUP3 ADD MSTORE POP JUMP JUMPDEST PUSH0 PUSH2 0x943 PUSH1 0x16 DUP4 PUSH2 0x897 JUMP JUMPDEST SWAP2 POP PUSH2 0x94E DUP3 PUSH2 0x90F JUMP JUMPDEST PUSH1 0x20 DUP3 ADD SWAP1 POP SWAP2 SWAP1 POP JUMP JUMPDEST PUSH0 PUSH1 0x20 DUP3 ADD SWAP1 POP DUP2 DUP2 SUB PUSH0 DUP4 ADD MSTORE PUSH2 0x970 DUP2 PUSH2 0x937 JUMP JUMPDEST SWAP1 POP SWAP2 SWAP1 POP JUMP JUMPDEST PUSH32 0x4E487B7100000000000000000000000000000000000000000000000000000000 PUSH0 MSTORE PUSH1 0x12 PUSH1 0x4 MSTORE PUSH1 0x24 PUSH0 REVERT JUMPDEST PUSH32 0x4E487B7100000000000000000000000000000000000000000000000000000000 PUSH0 MSTORE PUSH1 0x11 PUSH1 0x4 MSTORE PUSH1 0x24 PUSH0 REVERT JUMPDEST PUSH0 PUSH2 0x9DB DUP3 PUSH2 0x74E JUMP JUMPDEST SWAP2 POP PUSH2 0x9E6 DUP4 PUSH2 0x74E JUMP JUMPDEST SWAP3 POP DUP3 PUSH2 0x9F6 JUMPI PUSH2 0x9F5 PUSH2 0x977 JUMP JUMPDEST JUMPDEST DUP3 DUP3 DIV SWAP1 POP SWAP3 SWAP2 POP POP JUMP JUMPDEST PUSH0 PUSH2 0xA0B DUP3 PUSH2 0x74E JUMP JUMPDEST SWAP2 POP PUSH2 0xA16 DUP4 PUSH2 0x74E JUMP JUMPDEST SWAP3 POP DUP3 DUP3 ADD SWAP1 POP DUP1 DUP3 GT ISZERO PUSH2 0xA2E JUMPI PUSH2 0xA2D PUSH2 0x9A4 JUMP JUMPDEST JUMPDEST SWAP3 SWAP2 POP POP JUMP JUMPDEST PUSH0 PUSH2 0xA3E DUP3 PUSH2 0x74E JUMP JUMPDEST SWAP2 POP PUSH2 0xA49 DUP4 PUSH2 0x74E JUMP JUMPDEST SWAP3 POP DUP3 DUP3 MUL PUSH2 0xA57 DUP2 PUSH2 0x74E JUMP JUMPDEST SWAP2 POP DUP3 DUP3 DIV DUP5 EQ DUP4 ISZERO OR PUSH2 0xA6E JUMPI PUSH2 0xA6D PUSH2 0x9A4 JUMP JUMPDEST JUMPDEST POP SWAP3 SWAP2 POP POP JUMP JUMPDEST PUSH0 PUSH10 0xFFFFFFFFFFFFFFFFFFFF DUP3 AND SWAP1 POP SWAP2 SWAP1 POP JUMP JUMPDEST PUSH2 0xA93 DUP2 PUSH2 0xA75 JUMP JUMPDEST DUP2 EQ PUSH2 0xA9D JUMPI PUSH0 DUP1 REVERT JUMPDEST POP JUMP JUMPDEST PUSH0 DUP2 MLOAD SWAP1 POP PUSH2 0xAAE DUP2 PUSH2 0xA8A JUMP JUMPDEST SWAP3 SWAP2 POP POP JUMP JUMPDEST PUSH0 DUP2 SWAP1 POP SWAP2 SWAP1 POP JUMP JUMPDEST PUSH2 0xAC6 DUP2 PUSH2 0xAB4 JUMP JUMPDEST DUP2 EQ PUSH2 0xAD0 JUMPI PUSH0 DUP1 REVERT JUMPDEST POP JUMP JUMPDEST PUSH0 DUP2 MLOAD SWAP1 POP PUSH2 0xAE1 DUP2 PUSH2 0xABD JUMP JUMPDEST SWAP3 SWAP2 POP POP JUMP JUMPDEST PUSH0 DUP2 MLOAD SWAP1 POP PUSH2 0xAF5 DUP2 PUSH2 0x7A7 JUMP JUMPDEST SWAP3 SWAP2 POP POP JUMP JUMPDEST PUSH0 DUP1 PUSH0 DUP1 PUSH0 PUSH1 0xA0 DUP7 DUP9 SUB SLT ISZERO PUSH2 0xB14 JUMPI PUSH2 0xB13 PUSH2 0x6C5 JUMP JUMPDEST JUMPDEST PUSH0 PUSH2 0xB21 DUP9 DUP3 DUP10 ADD PUSH2 0xAA0 JUMP JUMPDEST SWAP6 POP POP PUSH1 0x20 PUSH2 0xB32 DUP9 DUP3 DUP10 ADD PUSH2 0xAD3 JUMP JUMPDEST SWAP5 POP POP PUSH1 0x40 PUSH2 0xB43 DUP9 DUP3 DUP10 ADD PUSH2 0xAE7 JUMP JUMPDEST SWAP4 POP POP PUSH1 0x60 PUSH2 0xB54 DUP9 DUP3 DUP10 ADD PUSH2 0xAE7 JUMP JUMPDEST SWAP3 POP POP PUSH1 0x80 PUSH2 0xB65 DUP9 DUP3 DUP10 ADD PUSH2 0xAA0 JUMP JUMPDEST SWAP2 POP POP SWAP3 SWAP6 POP SWAP3 SWAP6 SWAP1 SWAP4 POP JUMP JUMPDEST PUSH0 PUSH2 0xB7C DUP3 PUSH2 0xAB4 JUMP JUMPDEST SWAP2 POP PUSH2 0xB87 DUP4 PUSH2 0xAB4 JUMP JUMPDEST SWAP3 POP DUP3 DUP3 MUL PUSH2 0xB95 DUP2 PUSH2 0xAB4 JUMP JUMPDEST SWAP2 POP PUSH32 0x8000000000000000000000000000000000000000000000000000000000000000 DUP5 EQ PUSH0 DUP5 SLT AND ISZERO PUSH2 0xBCC JUMPI PUSH2 0xBCB PUSH2 0x9A4 JUMP JUMPDEST JUMPDEST DUP3 DUP3 SDIV DUP5 EQ DUP4 ISZERO OR PUSH2 0xBE1 JUMPI PUSH2 0xBE0 PUSH2 0x9A4 JUMP JUMPDEST JUMPDEST POP SWAP3 SWAP2 POP POP JUMP INVALID LOG2 PUSH5 0x6970667358 0x22 SLT KECCAK256 CALLCODE 0xEC 0xBC SWAP4 0xCF 0xDC 0x2E SWAP3 KECCAK256 SMOD 0xBC LOG1 0xE7 AND 0xDB DUP13 0xA5 0xC 0xB5 0xB7 0xE7 DUP11 0xC5 SWAP1 0x2D MULMOD 0x25 0xDA BYTE 0xDC 0x27 0xCD PUSH5 0x736F6C6343 STOP ADDMOD XOR STOP CALLER "
				},
				"gasEstimates": {
					"creation": {
						"codeDepositCost": "620400",
						"executionCost": "infinite",
						"totalCost": "infinite"
					},
					"external": {
						"MINIMUM_USD()": "347",
						"addressToAmount(address)": "2780",
						"fund()": "infinite",
						"funders(uint256)": "5031",
						"i_owner()": "infinite",
						"withdraw()": "infinite"
					}
				},
				"methodIdentifiers": {
					"MINIMUM_USD()": "6b69a592",
					"addressToAmount(address)": "3c7e7d28",
					"fund()": "b60d4288",
					"funders(uint256)": "dc0d3dff",
					"i_owner()": "dba6335f",
					"withdraw()": "3ccfd60b"
				}
			},
			"storageLayout": {
				"storage": [
					{
						"astId": 60,
						"contract": "contracts/fundMe.sol:fundeMe",
						"label": "funders",
						"offset": 0,
						"slot": "0",
						"type": "t_array(t_address)dyn_storage"
					},
					{
						"astId": 64,
						"contract": "contracts/fundMe.sol:fundeMe",
						"label": "addressToAmount",
						"offset": 0,
						"slot": "1",
						"type": "t_mapping(t_address,t_uint256)"
					}
				],
				"types": {
					"t_address": {
						"encoding": "inplace",
						"label": "address",
						"numberOfBytes": "20"
					},
					"t_array(t_address)dyn_storage": {
						"base": "t_address",
						"encoding": "dynamic_array",
						"label": "address[]",
						"numberOfBytes": "32"
					},
					"t_mapping(t_address,t_uint256)": {
						"encoding": "mapping",
						"key": "t_address",
						"label": "mapping(address => uint256)",
						"numberOfBytes": "32",
						"value": "t_uint256"
					},
					"t_uint256": {
						"encoding": "inplace",
						"label": "uint256",
						"numberOfBytes": "32"
					}
				}
			},
			"userdoc": {
				"kind": "user",
				"methods": {},
				"version": 1
			}
		}
	}
}